:020000040800F2
:1000000000000220C5FF0108AD1B0108B11B01085B
:10001000B51B0108B91B0108BD1B01080000000049
:10002000000000000000000000000000C11B0108EB
:10003000C51B010800000000C91B0108CD1B0108F9
:100040001500020815000208150002081500020834
:100050001500020815000208D11B0108150002084E
:1000600015000208D91B0108E11B01081500020850
:100070001500020815000208150002081500020804
:1000800015000208150002081500020815000208F4
:10009000150002081500020815000208E91B0108F6
:1000A00015000208150002081500020815000208D4
:1000B000FD1B0108091C01081500020815000208B3
:1000C00015000208150002081500020815000208B4
:1000D00015000208150002081500020815000208A4
:1000E0001500020815000208150002081500020894
:1000F0001500020815000208150002081500020884
:10010000150002081D1C0108150002081500020850
:100110001500020815000208150002081500020863
:10012000291C0108351C01087D1C01081500020866
:100130001500020815000208150002081500020843
:10014000150002081500020815000208C51C010868
:100150001500020815000208150002081500020823
:100160001500020815000208150002081500020813
:100170001500020815000208150002080000000022
:08018000150002081500020839
:1001900010B5054C237833B9044B13B10448AFF3C1
:1001A00000800123237010BDA00300200000000088
:1001B0004C22020808B5034B1BB103490348AFF3B7
:1001C000008008BD00000000A40300204C220208AB
:1001D00081F0004102E000BF83F0004330B54FEAF8
:1001E00041044FEA430594EA050F08BF90EA020F65
:1001F0001FBF54EA000C55EA020C7FEA645C7FEAF8
:10020000655C00F0E2804FEA5454D4EB5555B8BF1A
:100210006D420CDD2C4480EA020281EA030382EA8B
:10022000000083EA010180EA020281EA0303362D1D
:1002300088BF30BD11F0004F4FEA01314FF4801CF0
:100240004CEA113102D0404261EB410113F0004F02
:100250004FEA03334CEA133302D0524263EB4303B9
:1002600094EA050F00F0A780A4F10104D5F1200E57
:100270000DDB02FA0EFC22FA05F2801841F10001B2
:1002800003FA0EF2801843FA05F359410EE0A5F186
:1002900020050EF1200E012A03FA0EFC28BF4CF0B7
:1002A000020C43FA05F3C01851EBE37101F000456D
:1002B00007D54FF0000EDCF1000C7EEB00006EEB7A
:1002C0000101B1F5801F1BD3B1F5001F0CD3490804
:1002D0005FEA30004FEA3C0C04F101044FEA44525B
:1002E00012F5800F80F09A80BCF1004F08BF5FEAE2
:1002F000500C50F1000041EB045141EA050130BDC2
:100300005FEA4C0C404141EB010111F4801FA4F164
:100310000104E9D191F0000F04BF01460020B1FAB9
:1003200081F308BF2033A3F10B03B3F120020CDAF1
:100330000C3208DD02F1140CC2F10C0201FA0CF0CF
:1003400021FA02F10CE002F11402D8BFC2F1200C34
:1003500001FA02F120FA0CFCDCBF41EA0C019040EA
:10036000E41AA2BF01EB0451294330BD6FEA040433
:100370001F3C1CDA0C340EDC04F11404C4F120021E
:1003800020FA04F001FA02F340EA030021FA04F330
:1003900045EA030130BDC4F10C04C4F1200220FA87
:1003A00002F001FA04F340EA0300294630BD21FAC5
:1003B00004F0294630BD94F0000F83F4801306BF8B
:1003C00081F480110134013D4EE77FEA645C18BF7F
:1003D0007FEA655C29D094EA050F08BF90EA020F16
:1003E00005D054EA000C04BF1946104630BD91EA0E
:1003F000030F1EBF0021002030BD5FEA545C05D111
:100400004000494128BF41F0004130BD14F580044F
:100410003CBF01F5801130BD01F0004545F0FE41C3
:1004200041F470014FF0000030BD7FEA645C1ABFF8
:10043000194610467FEA655C1CBF0B46024650EA2F
:10044000013406BF52EA033591EA030F41F400215B
:1004500030BD00BF90F0000F04BF0021704730B5E1
:100460004FF4806404F132044FF000054FF00001B6
:1004700050E700BF90F0000F04BF0021704730B577
:100480004FF4806404F1320410F0004548BF40424C
:100490004FF000013EE700BF42004FEAE2014FEAA1
:1004A00031014FEA02701FBF12F07F4393F07F4F7C
:1004B00081F06051704732F07F4208BF704793F07F
:1004C0007F4F04BF41F40021704730B54FF4607492
:1004D00001F0004521F000411CE700BF50EA010295
:1004E00008BF704730B54FF000050AE050EA01023E
:1004F00008BF704730B511F0004502D5404261EBAE
:1005000041014FF4806404F132045FEA915C3FF4EE
:10051000D8AE4FF003025FEADC0C18BF03325FEA8B
:10052000DC0C18BF033202EBDC02C2F1200300FA3C
:1005300003FC20FA02F001FA03FE40EA0E0021FA61
:1005400002F11444BDE600BF53B94AB9002908BFFF
:1005500000281CBF4FF0FF314FF0FF3000F082B990
:10056000ADF1080C6DE904CE00F016F8DDF804E0FA
:10057000DDE9022304B0704780EA104080EA1020D1
:1005800080EA101046F6961300F00F0043FA00F0D0
:1005900000F00100704700BF2DE9F047089E0446B7
:1005A0008846002B4BD18A42154667D9B2FA82F2AF
:1005B0004AB1C2F1200701FA02F320FA07F7954089
:1005C00047EA030894404FEA154E230CB8FBFEF7A8
:1005D0001FFA85FC0EFB178843EA084307FB0CF162
:1005E000994209D9EB1807F1FF3080F01B8199423D
:1005F00040F21881023F2B445B1AA4B2B3FBFEF019
:100600000EFB103344EA034400FB0CFCA44509D95B
:100610002C1900F1FF3380F00781A44540F20481DA
:1006200002382C4440EA0740A4EB0C0400271EB11A
:10063000D4400023C6E900433946BDE8F0878B4229
:1006400009D9002E00F0EB800027C6E900013846EA
:100650003946BDE8F087B3FA83F7002F47D18B42C4
:1006600002D3824200F2FA80841A61EB0303012074
:100670009846002EE0D0C6E90048DDE702B9FFDE6B
:10068000B2FA82F2002A40F08F80491B4FEA154EE1
:100690001FFA85F80127B1FBFEFC230C0EFB1C1191
:1006A00043EA014308FB0CF1994207D9EB180CF11E
:1006B000FF3002D2994200F2CD808446591AA3B28B
:1006C000B1FBFEF00EFB101443EA044408FB00F8F3
:1006D000A04507D92C1900F1FF3302D2A04500F242
:1006E000B6801846A4EB080440EA0C409FE7C7F127
:1006F000200CBB4022FA0CFE4EEA030E01FA07F46E
:1007000020FA0CF521FA0CF34FEA1E482543B3FBFF
:10071000F8F92C0C08FB19331FFA8EFA44EA03434C
:1007200009FB0AF49C4202FA07F200FA07F10BD91E
:100730001EEB030309F1FF3080F087809C4240F2FA
:100740008480A9F1020973441B1BADB2B3FBF8F01E
:1007500008FB103345EA034400FB0AFAA24508D916
:100760001EEB040400F1FF336BD2A24569D90238B5
:10077000744440EA0940A0FB0289A4EB0A044C45FA
:10078000C2464B4654D351D0002E69D0B1EB0A0576
:1007900064EB030404FA0CFCFD40FC404CEA050544
:1007A000C6E90054002747E7C2F1200320FA03F707
:1007B000954001FA02F021FA03F34FEA154E38434F
:1007C000010CB3FBFEF71FFA85F80EFB173341EA65
:1007D000034107FB08F38B4204FA02F407D96918B6
:1007E00007F1FF3C2FD28B422DD9023F2944CB1A6F
:1007F00081B2B3FBFEF00EFB103341EA034100FB74
:1008000008F38B4207D9691800F1FF3C17D28B42DD
:1008100015D902382944C91A40EA07473BE7374649
:10082000304609E70746E7E61846FBE64145ABD206
:10083000B8EB020A69EB0E0201381346A4E76046E2
:10084000E9E7184695E76746D1E781467CE7023835
:100850002C4447E7ACF1020C2B442FE7384608E75D
:100860003746E9E6704700BF034613F8012B002A1C
:10087000FBD1181A0138704700000000000000008A
:1008800001F0FF01102A2BDB10F0070F08D010F841
:10089000013B013A8B422DD010F0070F42B3F6D145
:1008A000F0B441EA012141EA014122F007047FF05E
:1008B00000070023F0E80256083C85EA010586EAB5
:1008C000010685FA47F5A3FA87F586FA47F6A5FAF1
:1008D00087F68EB9EED1F0BC01F0FF0102F00702FD
:1008E00032B110F8013B013A83EA010313B1F8D1A8
:1008F0000020704701387047002D06BF3546033889
:10090000073815F0010F07D1013015F4807F02BFC1
:10091000013015F4C03F0130F0BC0138704700BF12
:1009200070B54FF0FF0C4CF4E06C1CEA11541DBF85
:100930001CEA135594EA0C0F95EA0C0F00F0DEF850
:100940002C4481EA030621EA4C5123EA4C5350EA35
:10095000013518BF52EA033541F4801143F4801386
:1009600038D0A0FB02CE4FF00005E1FB02E506F017
:100970000042E0FB03E54FF00006E1FB03569CF06C
:10098000000F18BF4EF0010EA4F1FF04B6F5007F72
:1009900064F5407404D25FEA4E0E6D4146EB0606E4
:1009A00042EAC62141EA55514FEAC52040EA5E506D
:1009B0004FEACE2EB4F1FD0C88BFBCF5E06F1ED817
:1009C000BEF1004F08BF5FEA500E50F1000041EB4E
:1009D000045170BD06F0004646EA010140EA0200FB
:1009E00081EA0301B4EB5C04C2BFD4EB0C0541EA1D
:1009F000045170BD41F480114FF0000E013C00F332
:100A0000AB8014F1360FDEBF002001F0004170BD55
:100A1000C4F10004203C35DA0C341BDC04F114046E
:100A2000C4F1200500FA05F320FA04F001FA05F2FA
:100A300040EA020001F0004221F0004110EBD370C7
:100A400021FA04F642EB06015EEA430E08BF20EAF3
:100A5000D37070BDC4F10C04C4F1200500FA04F396
:100A600020FA05F001FA04F240EA020001F0004128
:100A700010EBD37041F100015EEA430E08BF20EA9B
:100A8000D37070BDC4F1200500FA05F24EEA020EE3
:100A900020FA04F301FA05F243EA020321FA04F012
:100AA00001F0004121FA04F220EA020000EBD370C9
:100AB0005EEA430E08BF20EAD37070BD94F0000FC9
:100AC0000FD101F00046400041EB010111F4801FFD
:100AD00008BF013CF7D041EA060195F0000F18BFAE
:100AE000704703F00046520043EB030313F4801FEA
:100AF00008BF013DF7D043EA0603704794EA0C0FA4
:100B00000CEA135518BF95EA0C0F0CD050EA4106B9
:100B100018BF52EA4306D1D181EA030101F0004136
:100B20004FF0000070BD50EA410606BF104619465E
:100B300052EA430619D094EA0C0F02D150EA01366A
:100B400013D195EA0C0F05D152EA03361CBF1046AB
:100B500019460AD181EA030101F0004141F0FE414A
:100B600041F470014FF0000070BD41F0FE4141F4CE
:100B7000780170BD70B54FF0FF0C4CF4E06C1CEACE
:100B800011541DBF1CEA135594EA0C0F95EA0C0F83
:100B900000F0A7F8A4EB050481EA030E52EA03353E
:100BA0004FEA013100F088804FEA03334FF080555F
:100BB00045EA131343EA12634FEA022245EA11158C
:100BC00045EA10654FEA00260EF000419D4208BF3D
:100BD000964244F1FD0404F5407402D25B084FEAEA
:100BE0003202B61A65EB03055B084FEA32024FF496
:100BF00080104FF4002CB6EB020E75EB030E22BFF3
:100C0000B61A754640EA0C005B084FEA3202B6EBB2
:100C1000020E75EB030E22BFB61A754640EA5C0061
:100C20005B084FEA3202B6EB020E75EB030E22BFF1
:100C3000B61A754640EA9C005B084FEA3202B6EBF2
:100C4000020E75EB030E22BFB61A754640EADC00B1
:100C500055EA060E18D04FEA051545EA16754FEA13
:100C600006164FEAC30343EA52734FEAC2025FEA31
:100C70001C1CC0D111F4801F0BD141EA00014FF0C0
:100C800000004FF0004CB6E711F4801F04BF014391
:100C90000020B4F1FD0C88BFBCF5E06F3FF6AFAEAD
:100CA000B5EB030C04BFB6EB020C5FEA500C50F13D
:100CB000000041EB045170BD0EF0004E4EEA1131C0
:100CC00014EB5C04C2BFD4EB0C0541EA045170BDC7
:100CD00041F480114FF0000E013C90E645EA060E0B
:100CE0008DE60CEA135594EA0C0F08BF95EA0C0F39
:100CF0003FF43BAF94EA0C0F0AD150EA01347FF481
:100D000034AF95EA0C0F7FF425AF104619462CE757
:100D100095EA0C0F06D152EA03353FF4FDAE1046BA
:100D2000194622E750EA410618BF52EA43067FF40B
:100D3000C5AE50EA41047FF40DAF52EA43057FF49B
:100D4000EBAE12E74FF0FF3C06E000BF4FF0010CA6
:100D500002E000BF4FF0010C4DF804CD4FEA410C0A
:100D60007FEA6C5C4FEA430C18BF7FEA6C5C1BD0D7
:100D700001B050EA410C0CBF52EA430C91EA030F58
:100D800002BF90EA020F0020704710F1000F91EAB5
:100D9000030F58BF994208BF90422CBFD8176FEA83
:100DA000E37040F0010070474FEA410C7FEA6C5C51
:100DB00002D150EA013C07D14FEA430C7FEA6C5C58
:100DC000D6D152EA033CD3D05DF8040B704700BF84
:100DD0008446104662468C461946634600E000BFD2
:100DE00001B5FFF7B7FF002848BF10F1000F01BDA4
:100DF0004DF808EDFFF7F4FF0CBF012000205DF86F
:100E000008FB00BF4DF808EDFFF7EAFF34BF0120F3
:100E100000205DF808FB00BF4DF808EDFFF7E0FF8C
:100E200094BF012000205DF808FB00BF4DF808EDDD
:100E3000FFF7CEFF94BF012000205DF808FB00BF44
:100E40004DF808EDFFF7C4FF34BF012000205DF826
:100E500008FB00BF4FEA410C7FEA6C5C02D150EA0C
:100E6000013C0AD14FEA430C7FEA6C5C02D152EAA2
:100E7000033C02D14FF0000070474FF00100704773
:100E80004FEA410212F5001215D211D56FF47873B2
:100E9000B3EB625212D94FEAC12343F0004343EA55
:100EA000505311F0004F23FA02F018BF4042704730
:100EB0004FF00000704750EA013005D111F00040BA
:100EC00008BF6FF0004070474FF00000704700BF50
:100ED00008B50B4B1A6842F400721A601A6842F4A3
:100EE00080621A601A6842F480721A60032000F06F
:100EF0004DFA002010F01CFE10F03EFC002008BD52
:100F0000003C0240034A044B11681B780B441360F9
:100F1000704700BF500C002000000020014B1868F3
:100F2000704700BF500C002038B50446FFF7F6FFAD
:100F3000631C054602D0044B1B781C44FFF7EEFFF0
:100F4000401BA042FAD338BD00000020002800F06A
:100F50008E80F8B5036C0446002B7ED0236CDB0634
:100F600004D50023012084F83C30F8BD226C4C49A4
:100F700023684C4D22F4885222F0020242F0020211
:100F800022644A6822F440324A604A686068024338
:100F90004A6058682169A768E66820F48070586044
:100FA0005A6842EA01225A60586820F0407058603E
:100FB0005968A06A39435960996821F400619960C1
:100FC0009A68A84242EA06029A6052D09968E56A95
:100FD00021F0706199609A6810439860996821F0D7
:100FE000405199609A682A439A609968A569206A75
:100FF00021F0020199609A6842EA45029A605A68B3
:1010000000283FD122F400625A60DA6AE569276B52
:10101000666922F47002DA62D86A013D40EA05503E
:10102000D862986820F400709860996841EA472176
:101030009960996821F4806199609A68002042EA79
:1010400086229A606064236C23F0030343F001035B
:101050002364002384F83C30F8BD436480F83C30BE
:1010600010F0A6FB236CDB063FF57BAF7EE701208B
:1010700070479A6822F070629A609A6822F0405233
:101080009A60B2E742F40062616A5A605A6822F4D8
:1010900060425A605A68013942EA41325A60B4E704
:1010A000002301400100000FF0B590F83C3083B000
:1010B0000024012B019469D00568AB680124DE0788
:1010C00080F83C4014D4334B334E1C68AB68A6FB0D
:1010D0000464A40C43F0010304EB4404AB600194EA
:1010E000019B2BB1019C013C0194019C002CF9D186
:1010F000AB68DC073DD5046C24F4E06424F0010403
:1011000044F4807404646B685B0505D5036C23F4B8
:10111000405343F480530364036C204E13F4805314
:101120001CBF436C23F0060343640446806B1346E4
:1011300000271B4A84F83C70C6630264194EC664DB
:101140006FF022022A606E6846F080666E60AE68BC
:1011500046F480760A46AE6005F14C0100F004FAD0
:10116000114B5B6813F01F0F236805D00F4A9342A1
:1011700002D0002003B0F0BD986810F04050F8D1C4
:101180009A6842F080429A6003B0F0BD022003B03A
:10119000F0BD00BF4001002083DE1B43B5110008F5
:1011A000151200082512000800230140002001400C
:1011B000704700BF836B1A6C12F0500F02D09B6B0C
:1011C000DB6C18471A6C196842F4007210B51A6487
:1011D0008A6812F0405F17D19A69AAB9CA6A12F4F4
:1011E000700F02D08A6850050ED44A6822F020029F
:1011F0004A601A6C22F480721A641A6CD20403D406
:101200001A6C42F001021A641846FFF7D1FF10BDB4
:10121000704700BF08B5806BFFF7FAFF08BD00BF3D
:10122000704700BF806B08B540230364436C43F0F4
:1012300004034364FFF7F4FF08BD00BFF0B490F867
:101240003C3082B00022012B019200F095800D68A5
:101250008A6803680124092DAFB280F83C4029D880
:101260001C6905EB45064FF0070C0CFA06FC24EA56
:101270000C041C611C6902FA06F626431E614E68C6
:10128000062E06EB86022AD8596B053A1F24944095
:1012900021EA04015963596B07FA02F20A435A63BF
:1012A000374A93422DD0002380F83C30184602B0D4
:1012B000F0BC704707EB4706DC681E3E4FF0070C9A
:1012C0000CFA06FC24EA0C04DC60DC6802FA06F680
:1012D0002643DE604E68062E06EB8602D4D90C2E1D
:1012E00035D8A2F123041F211A6BA14022EA010282
:1012F0001A63196B07FA04F20A431A63204A9342ED
:10130000D1D1122D31D0A5F11003012BCBD81D4A1C
:101310005368102D43F400035360C4D11A4B02F1FB
:10132000467202F52E321B6802F28332A2FB0323BF
:101330009B0C03EB83035B000193019B002BB2D05A
:10134000019B013B0193019B002BF9D1ABE7A2F17B
:1013500041011F24DA6A8C4022EA0402DA62DC6A64
:1013600007FA01F22243DA629AE7D2F8043343F42F
:101370008003C2F8043396E7022002B0F0BC704745
:10138000002001400023014040010020074AD368AB
:101390004FF6FF010B40000243F0BF6300F4E06032
:1013A00043F400330343D360704700BF00ED00E017
:1013B000184BDB68C3F3022330B4C3F10705042DD7
:1013C00003F1040428BF0425062C19D9033B4FF070
:1013D000FF349C4022EA04044FF0FF32AA4021EA85
:1013E000020101FA03F2224312010028D2B20ADB01
:1013F00000F1604000F5614080F8002330BC704788
:1014000000242346E8E7044B00F00F0003441A765B
:1014100030BC704700ED00E0FCEC00E000F01F0184
:1014200001234009024A8B4042F82030704700BF38
:1014300000E100E0F8B50446FFF770FD002C54D041
:101440000222236884F835201A68002122F0010264
:1014500084F8341005461A6005E0FFF75FFD401B75
:1014600005283BD823681A68D107F6D4D4E90126A9
:10147000D4E90351324360691F682A43D4E9066501
:101480000A430243216A354832432A430A43616AC8
:101490003840042942EA000229D01A605A6922F031
:1014A00007021143DAB22E485961103AA0FB02122A
:1014B00012092C4923F47F73895CE16523F003034F
:1014C000032A88BF04333F228A4001250021A365F7
:1014D00008469A60616584F83550F8BD03232022E0
:1014E0006265184684F83530F8BD0120F8BDD4E9AE
:1014F0000B0101430A43A56A1A605A6945F00401C9
:1015000022F0070211430028CCD07EB1B6F5005F6F
:1015100016D0022D03D9032DC4D1C201C2D5012397
:1015200040226265184684F83530F8BD012D03D09D
:10153000F3D3022DB6D1F0E7B0F1C07FB2D1EEE720
:10154000032DAFD801A252F825F000BF1F150008E7
:101550001B1500081F150008391500083F8010F002
:10156000ABAAAAAA68220208F0B490F83440012C71
:1015700039D090F83540866D0125AC4280F8345062
:101580002BD104680227002580F835704565256851
:10159000876825F48025402F256063600ABFA2601C
:1015A000A160E160C16D18BFE2603F238B40026C17
:1015B000B360236843F016032360636943F080033C
:1015C00063611AB1236843F008032360236843F082
:1015D000010323600020F0BC7047002380F8343002
:1015E000F0BC022070470220F0BC704790F8353004
:1015F000022B03D080234365012070470268052336
:1016000080F83530136823F0010313600020704721
:10161000F0B583B00023876D0193C36D3D686549C4
:1016200008229A402A4204460E6803D001680868DE
:10163000400759D401229A402A4203D021684969BF
:10164000080674D404229A402A4203D0216809680B
:10165000890766D410229A402A4203D0216808687C
:1016600000074BD420229A402A4214D021680868EF
:10167000C00610D5BA6094F83520052A63D00B68EF
:1016800013F4802F0B687ED0190340F18980E36B3F
:101690000BB120469847636D23B3636DDA071AD503
:1016A0000523226884F835301368434923F0010389
:1016B000A1FB06161360B60A02E01368DB0704D527
:1016C000019B0133B3420193F7D90022012384F82F
:1016D000342084F83530E36C23B1204603B0BDE8F4
:1016E000F040184703B0F0BD086820F0040008601F
:1016F000BA60626D42F0010262659BE7BA600A68F7
:1017000012F4802F0A6818D1D20503D40A6822F097
:1017100008020A60226C002AA4D020469047E36D9C
:10172000A0E7BA60626D42F00402626592E7BA60B7
:10173000626D42F00202626584E71103EAD5A26C91
:10174000002AEAD18EE70A68206C22F016020A60AD
:101750004A6922F080024A6138B30A6822F008021E
:101760000A603F22216D02FA03F300200122BB60D0
:1017700084F8340084F835200029B3D0204603B023
:10178000BDE8F040084713F4807380D10A68012057
:1017900022F010020A6084F8343084F8350076E7CD
:1017A000636C002B7FF475AF75E7A26C002AD4D16F
:1017B000D7E700BF40010020B5814E1B2DE9F04F57
:1017C000DFF830C2DFF83082D1F800E083B00025C6
:1017D00003E00135102D00F09A800123AB400EEAA2
:1017E0000304A342F5D14E6826F0100ABAF1020FA5
:1017F00000F090804FEA45090322D0F800B002FAC9
:1018000009F2D24306F0030702EA0B0B07FA09F7C5
:101810000AF1FF3A47EA0B07BAF1010F076040F2FD
:101820009F80C7688B683A4003FA09F31343C3608B
:10183000F300CED500230193D8F8443043F480431D
:10184000C8F84430D8F8443025F0030202F1804251
:1018500003F4804302F59C32019305F00307019BDA
:10186000D2F80890BF000F23BB4029EA030A5B4B64
:10187000984224D003F58063984200F08480584B4E
:10188000984200F08780574B984200F08A80564B70
:10189000984200F08D80554B984200F09080544B58
:1018A000984200F09380DFF8549148450CBF4FF008
:1018B00007094FF0080909FA07F74AEA070AC2F8C8
:1018C00008A0DCF80030E243F70354BF1340234381
:1018D000CCF80030DCF80430B70354BF1340234386
:1018E000CCF80430DCF80830F70254BF134023432F
:1018F000CCF80830DCF80C30B60205F1010554BF15
:1019000013402343102DCCF80C307FF466AF03B0A6
:10191000BDE8F08F4FEAD50900EB890905F007070C
:10192000D9F82020BF004FF00F0B0BFA07FB22EA7B
:101930000B0A0A69BA4042EA0A02C9F820204FEAB3
:1019400045090322D0F800A002FA09F2D24306F0BA
:10195000030702EA0A0A07FA09F747EA0A070760D3
:10196000876807EA020ACF6807FA09F747EA0A0711
:101970008760D0F804A0C6F300172AEA0303AF403B
:101980001F4347604DE74FF0010909FA07F74AEA9C
:10199000070A94E74FF0020909FA07F74AEA070A2B
:1019A0008DE74FF0030909FA07F74AEA070A86E7C5
:1019B0004FF0040909FA07F74AEA070A7FE74FF0F0
:1019C000050909FA07F74AEA070A78E74FF0060916
:1019D00009FA07F74AEA070A71E700BF0000024068
:1019E00000080240000C02400010024000140240B7
:1019F00000180240003C014000380240001C024038
:101A00000369194214BF01200020704702B909047C
:101A1000816170474369594041617047704700BF19
:101A2000044A5169014200D1704708B55061FFF77F
:101A3000F5FF08BD003C0140002800F0CA812DE9F7
:101A4000F04F04464FF0030A8BB0064680F8B9A366
:101A500011F0AAFA206804F067FA56F8107B0FCE4E
:101A60006D460FC50FCE0FC596E8030085E803004D
:101A700004F1040898E80E00384604F0F1F900215A
:101A8000206804F059FA40F201174FF4807C4FF4BB
:101A9000817040F203114FF4827240F20513002569
:101AA000A4F838C0A4F85470A4F87000A4F88C10FE
:101AB000A4F8A820A4F8C4304FF4837940F2071E9C
:101AC0004FF4847C40F209174FF4857040F20B11FB
:101AD0004FF4867240F20D13A4F8E09084F83B5066
:101AE000C4E91055E56484F85750C4E91755A56654
:101AF00084F87350C4E91E55C4F8845084F88F509C
:101B0000C4E92555C4F8A05084F8AB50C4E92C555D
:101B1000C4F8BC5084F8C750C4E93355C4F8D85051
:101B200084F8E350C4E93A55A4F8FCE0A4F818C1DD
:101B3000A4F83471A4F85001A4F86C11A4F8882119
:101B4000C4F8F45084F8FF50C4F80451C4F80851A4
:101B5000C4F8105184F81B51C4F82051C4F8245122
:101B6000C4F82C5184F83751C4F83C51C4F84051A2
:101B7000C4F8485184F85351C4F85851C4F85C5122
:101B8000C4F8645184F86F51C4F87451C4F87851A2
:101B9000C4F8805184F88B51C4F89051C4F8945122
:101BA000C4F89C51A4F8A431276884F8A7514FF0D9
:101BB000010902200421052206234FF4877CA4F8A2
:101BC000C0C1C4F8AC51C4F8B051C4F8B85184F8DD
:101BD000C351C4F8C851C4F8CC51C4F8D451A4F8C6
:101BE000F851E58784F8FB51C4F80052C4F8045258
:101BF000C4F80C524FF0070BC7F804514FF0080E11
:101C000084F81752C4F81C52C4F82052C4F8285261
:101C1000A4F81492A4F85A904FF0090CC7F8085190
:101C2000A4F83002A4F8760084F83352C4F838528D
:101C3000C4F83C52C4F844520A20C7F80C51A4F826
:101C40004CA2A4F892A084F84F52C4F85452C4F89D
:101C50005852C4F860524FF00E0AC7F81051A4F859
:101C60006812A4F8AE1084F86B52C4F87052C4F82D
:101C70007452C4F87C520B21C7F81451A4F8842282
:101C8000A4F8CA2084F88752C4F88C52C4F8905241
:101C9000C4F898520C22C7F81851A4F8A032A4F83E
:101CA000E6300D2384F8A352C4F8A852C4F8AC520D
:101CB000C4F8B452C7F81C5184F8BF52C4F8C452D7
:101CC000C4F8C852C4F8D052A4F8BCB2A4F802B107
:101CD000C7F82051A4F8D8E2A4F81EE184F8DB523A
:101CE000C4F8E052C4F8E452C4F8EC5204F1100E07
:101CF000C7F82451A4F8F4C2A4F83AC184F8F75202
:101D0000C4F8FC52C4F80053C4F80853C7F828516B
:101D1000A4F81003A4F8560184F81353C4F8185318
:101D2000C4F81C53C4F82453C7F82C51A4F82C133E
:101D3000A4F8721184F82F53C4F83453C4F83853FC
:101D4000C4F84053C7F83051A4F84823A4F88E21B2
:101D500084F84B53C4F85053C4F85453C4F85C533C
:101D6000C7F8345184F86753A4F86433A4F8AA314F
:101D7000C4F86C53C4F87053C4F87853C7F838519A
:101D800084F88353A4F880A3BEE80F00EC46C4F89F
:101D90008853C4F88C53C4F89453A4F8C6A1C7F868
:101DA0003C51ACE80F00BEE80F00ACE80F0096E82D
:101DB00003008CE80300384698E80E0004F0D6F8DB
:101DC00084F8B993206804F04FFC28460BB0BDE8B6
:101DD000F08F0120704700BF90F8B833012B0ED070
:101DE00010B50123044680F8B833006804F030FCD5
:101DF000206804F091F8002084F8B80310BD022098
:101E0000704700BF2DE9F04F066887B004463046A2
:101E100004F066FC10B107B0BDE8F08F05462068FD
:101E200004F02EFC0028F6D0206804F029FC10F005
:101E3000020F20681EBF436903F00203436104F0F0
:101E40001FFC10F40027206840F0AA8104F018FC61
:101E5000430300F1F180D4F800B0584604F010FCC0
:101E60000028C0F21682206804F00AFC000548D45D
:101E7000206804F005FCC20472D4206804F000FC61
:101E800010F4005F206840F0B08004F0F9FB10F01F
:101E9000100F206811D0836923F010038361356A25
:101EA000C5F34343022B05F00F0839D0062B00F091
:101EB0003182836943F01003836104F0E1FB03077F
:101EC00000F1BC81206804F0DBFBC60200F1AC81AC
:101ED000206804F0D5FB850200F1B981206804F088
:101EE000CFFB400000F19F80206804F0C9FB410750
:101EF00091D523685D686A070DD45A682A435A60F1
:101F000089E7D6F80838D90726D42068436903F44E
:101F100000634361ADE7204611F0D0F82368ECE799
:101F200047F6F0731D42C4D0C8EBC80804EB88081C
:101F3000C5F30A152A463046D8F8041204F030FBDF
:101F4000D8F80422D8F8103220682A442B44C8F864
:101F50000422C8F81032ACE7204611F087F8D4E725
:101F600006F50068D8F80430206823F0010310213A
:101F7000C8F8043004F0B4F8606850B106F5106396
:101F8000FF22013585429A60C3F8082203F120033D
:101F9000F7D14FF0FF33C8F81830D8F81C30226B57
:101FA00043F00113C8F81C30002A00F08981D8F8EA
:101FB000843043F00B03C8F88430D8F8443043F041
:101FC0000B03C8F84430D6F80038217C206823F48D
:101FD000FE63C6F8003804F56F7204F0A1FB2068B8
:101FE000436903F48053436148E704F07DFB2068B4
:101FF000C36823F47053C36004F094F8002840F0E1
:102000006C812268E060D3684FF4007143F4105390
:102010006161D360204611F019F82068436903F428
:102020000053436131E7204611F044F820684369CA
:1020300003F08043436158E7206804F02DFB81469C
:10204000002800F08581D4F800B0049506F51063EF
:10205000CDE90236A24600275E4607E05FEA59094D
:1020600007F101070AF11C0A00F00F8119F0010FB6
:10207000F4D05FFA87F83046414604F01FFBC607EC
:10208000054640F1FA80039B2069012202FA07F11C
:10209000D3F8342822EA0101029AC3F8341802EB7B
:1020A00047121346012290429A6004D1DAE91023C4
:1020B0001344CAF844304146204610F0B9FF216964
:1020C0002668012900F0CD80280704D5029B03EB88
:1020D000471308229A60E90604D5029B03EB4713D5
:1020E00010229A606A0604D5029B03EB4713402234
:1020F0009A60AB0704D5029B03EB471302229A6058
:102100002D06ABD5DAE9130C06EB471BDAF84020B5
:10211000DBF8181905960BF5106BA0EB0C03934236
:102120001D4628BF154689B205F1030EB1EB9E0F7F
:1021300029D9604527D930B3DAF844101D4606E0A6
:10214000DAF84C209A421DD9D51ADAF84020237CBF
:102150000093954228BF1546ABB24246304604F084
:1021600009FADBF81820DAF84410DAF85030E81CE5
:1021700092B229442B44B2EB900FCAF84410CAF82B
:102180005030DDD82668002D7FF468AF059B012212
:10219000D3F83418BA4021EA0202C3F834285DE7C4
:1021A00004F072FA8046002800F0D68020680027EC
:1021B00006F5306905E05FEA580807F101073FF4CA
:1021C00045AE18F0010FF6D05FFA87FB594604F0D0
:1021D0006BFA10F0010F82461ED02369012109EB32
:1021E00047128B42916010D1C7EBC70304EB830306
:1021F0001169D3F80002D3F80422C1F31201411A85
:102200000244C3F81012C3F804225946204610F0C5
:1022100005FF2169012971D01AF0080F48D11AF081
:10222000100F2CD12068C6E72046F9B210F03EFF0F
:102230002068436903F4801343614AE6204610F0A6
:1022400001FF2068436903F0080343613BE6204631
:10225000F9B210F027FF2068436903F400134361CB
:102260003DE6002F7FF430AFE36C002B7FF42CAF02
:10227000304604F56F7204F053FA266824E709EB40
:102280004713102220689A6095E7B346049D039E89
:10229000E3E5D6F8042822F001022046C6F8042817
:1022A00010F0FCFE2068436903F000434361DBE566
:1022B000204610F0ADFE09EB471308229A60AEE706
:1022C000D8F8143043F00B03C8F81430D8F81030A5
:1022D00043F00B03C8F8103075E603224023E26098
:1022E000636100F0C3FC454B454A0344934224D844
:1022F0002268D36843F47053D3608BE6002F8BD1F0
:10230000D4F80C32002B87D104F56F72206804F0EA
:1023100007FA81E7082204F56F713046C8EBC80858
:1023200004F03EF904EB8802C5F30A13D2F8101248
:1023300020680B44C2F81032BBE5324A32492368A8
:1023400002448A420BD8DA6842F46052DA6061E6ED
:102350000746D4F800B080E50746206876E5A0F58A
:1023600074022A49A2F510528A4204D8DA6842F46B
:102370005052DA604EE6A0F183722549A2F5E74299
:102380008A4204D8DA6842F44052DA6042E6214ACE
:10239000214902448A4204D8DA6842F43052DA60B1
:1023A00038E61E4A1E4902448A4204D8DA6842F4DA
:1023B0002052DA602EE61B4A1B4902448A4204D8A6
:1023C000DA6842F41052DA6024E6A0F1B7721749D5
:1023D000A2F558528A4204D8DA6842F40052DA6010
:1023E00018E6134A134902448A42DA6894BF42F459
:1023F000E05242F4C052DA600CE600BF405327FFBF
:10240000FF340C00401E1BFF3F420F007F4F1200A5
:102410001FD6130060B6E5FE5FE3160000D3CEFEC4
:102420003F771B00C05BB3FEBF9121001F753800D2
:10243000E05459FEDF9C410090F8B833012B0BD0DB
:1024400010B50123044680F8B833006804F0F0F8B2
:10245000002084F8B80310BD0220704770B50C0648
:1024600001F07F0524D4C1EBC10400EB84041C26D9
:1024700006FB0101002684F8F851C4F8002284F814
:10248000FB3184F8F96101F5FC71022B04BF0023D4
:102490000B7190F8B833012B1CD00123044680F84F
:1024A000B833006803F05AFE002084F8B80370BD0A
:1024B000C5EBC50400EB84041C2101FB050122646B
:1024C000012284F8385084F83B30E58784F83920BD
:1024D0003831DAE7022070BD4BB2002B10B501F0A5
:1024E0007F0216DB1C2404FB010101F5FC71DB0FEC
:1024F0004B700A7090F8B833012B15D001230446B5
:1025000080F8B833006803F069FE002084F8B8034F
:1025100010BD1C2101FB02013831DB0F4B700A702A
:1025200090F8B833012BE9D1022010BD38B501F085
:102530007F05C5EBC50400EB84040021C4F8042228
:10254000C4F8101284F8F911C4F80C3284F8F85168
:1025500003691C2101FB0501012B08BFC4F80822F7
:1025600001F5FC710068DAB21DB103F095FE0020A0
:1025700038BD03F07BFF002038BD00BF01F00F0124
:10258000C1EBC10100EB8101B1F81002704700BF3F
:1025900070B501F07F05C5EBC50400EB8404012193
:1025A0000026626484F83910E36484F838502665A4
:1025B00003691C2101FB0501012B08BFA26438310E
:1025C0000068DAB21DB103F067FE002070BD03F0B1
:1025D0004DFF002070BD00BF38B54BB2002B01F09D
:1025E0007F0522DB1C2202FB010101F5FC71DB0FE0
:1025F00001224B700D708A7090F8B833934219D055
:10260000044680F8B823006803F0DEFF1DB1002007
:1026100084F8B80338BD04F56F72217C206804F09B
:102620007FF8002084F8B803F4E71C2101FB0501C2
:102630003831DCE7022038BD38B54BB2002B01F051
:102640007F0218DB1C2404FB010101F5FC71DB0F88
:1026500000254B700A708D7090F8B833012B0FD0A5
:102660000446012380F8B833006803F0C9FF84F8FA
:10267000B853284638BD1C2101FB02013831E6E77A
:10268000022038BD90F8B833012B15D0012310B5C6
:1026900080F8B8330B060446006805D403F032FD19
:1026A000002084F8B80310BD01F07F0103F018FD8D
:1026B000002084F8B80310BD0220704730B40568CC
:1026C00012046C6AC9B1AB6A013904EB13440CD033
:1026D00000231846403005EB800001334068DBB230
:1026E0008B4204EB10441846F4DB403105EB8101CA
:1026F00014434C60002030BC70471443AC6200208F
:1027000030BC70470368002059627047014B0122BA
:102710001A60704720000E42024A53681843506006
:10272000704700BF00700040024A536823EA00006F
:1027300050607047007000400549064A0B6843F03E
:1027400002030B60136943F00403136130BF704749
:102750000070004000ED00E0002800F032812DE91B
:10276000F0410368DD0782B004462FD5AC498A6882
:1027700002F00C02042A00F0EA808A6802F00C02DF
:10278000082A00F0E0806368B3F5803F00F0E9803C
:10279000B3F5A02F00F05481A14D2A6822F48032B5
:1027A0002A602A6822F480222A60002B40F0DE8012
:1027B000FEF7B4FB064605E0FEF7B0FB801B64287D
:1027C00000F2F2802B689B03F6D423689F0775D430
:1027D0001A0715D56369002B00F0A580914B904D29
:1027E00001221A60FEF79AFB064605E0FEF796FB0B
:1027F000801B022800F2D8806B6F9B07F6D52368F8
:1028000058073BD5864A136C13F0805340F0DB80A9
:102810000193136C43F080531364136C03F08053E3
:102820000193019B0126804D2A68D10540F1AC80BF
:10283000A368012B00F0C980052B00F00B81784DB7
:102840002A6F22F001022A672A6F22F004022A6707
:10285000002B40F0BF80FEF761FB41F288378046D5
:1028600006E0FEF75BFBA0EB0800B84200F29C809C
:102870002B6F9807F5D4002E40F0DC80A269CAB116
:10288000674DA96801F00C01082948D0022A674A5F
:102890004FF00001116000F0E780FEF73FFB2C468F
:1028A000054604E0FEF73AFB401B02287CD823686B
:1028B0009B01F7D4002002B0BDE8F081584A91682E
:1028C00011F00C0F24D0916801F00C0108291CD0E4
:1028D000E368002B00F09280554B514D01221A60A5
:1028E000FEF71CFB064604E0FEF718FB801B0228DF
:1028F0005AD82B689807F7D52B68226923F0F8037C
:1029000043EAC2032B60236862E752685602DFD4B1
:10291000434A126895074BD5E268012A48D0012046
:1029200002B0BDE8F0813F4A3D4D1360FEF7F6FA74
:10293000064604E0FEF7F2FA801B022834D86B6FDB
:102940009F07F7D45BE74A6850027FF51CAF344A13
:10295000126891037FF53AAF6268002A7FF436AFC0
:10296000DDE72F4A136843F480331360FEF7D6FA8D
:102970002B4D064604E0FEF7D1FA801B642813D8DD
:102980002B689A03F7D520E72A6842F480722A6000
:10299000FEF7C4FA07462B68DA053FF549AFFEF7A4
:1029A000BDFAC01B0228F6D9032002B0BDE8F081B1
:1029B0001B4920690A6822F0F80242EAC0020A6054
:1029C00006E70120704700262DE7154A136F43F0F4
:1029D00001031367FEF7A2FA114D804641F28837D2
:1029E00005E0FEF79BFAA0EB0800B842DCD82B6F9D
:1029F0009B07F6D5002E3FF441AF1BE00C4A084D73
:102A00001360FEF78BFA064604E0FEF787FA801B98
:102A10000228C9D82B689907F7D42368D8E600BFE5
:102A200000380240800E474200700040600047427C
:102A300000004742234A136C23F0805313641DE7C0
:102A4000204B1A6842F480221A601A6842F48032DD
:102A50001A608BE71B4B1A6F42F004021A671A6F59
:102A600042F001021A67B5E7FEF758FA064604E09D
:102A7000FEF754FA801B022896D82B689901F7D4E8
:102A8000D4E90736D4E90902E16A0E4C334343EA3C
:102A90008013520843EA0163013A0B4943EA0243B7
:102AA00001226B600A60FEF739FA054605E0FEF781
:102AB00035FA401B02283FF677AF23689A01F6D516
:102AC000F8E600BF0038024060004742174908B5E9
:102AD0008B6803F00C03042B1BD0082B17D14A681A
:102AE0004B6813F4800302F03F0214D14968104888
:102AF000C1F38811A1FB0001FDF726FD0B4B5B68BC
:102B0000C3F3014301335B00B0FBF3F008BD084899
:102B100008BD084808BD4B680648C3F38813A3FBEB
:102B200000010023FDF710FDE8E700BF0038024078
:102B30000024F40000127A0060B1484A136803F0E0
:102B40000F038B4208D2CBB21370136803F00F034C
:102B50008B4201D00120704703682DE9F0419D07A9
:102B600014D55C0704D53E4CA26842F4E052A26042
:102B70001A0704D53A4CA26842F46042A260384C6D
:102B80008568A26822F0F0022A43A260DF070446AB
:102B90000D4622D54268012A56D0931E012B304B98
:102BA0001B6858D9990725D52D4EB36823F0030328
:102BB0001343B360FEF7B2F941F28837804605E06F
:102BC000FEF7ACF9A0EB0800B84242D8B3686268DF
:102BD00003F00C03B3EB820FF2D1204A136803F029
:102BE0000F03AB4209D9EBB21370136803F00F0364
:102BF000AB4202D00120BDE8F08123685A0706D518
:102C00001749E0688A6822F4E05202438A601B0791
:102C100011D4FFF75BFF124B12499B68124AC3F3B2
:102C20000313CB5C20FA03F3002013600EF080FF47
:102C30000020BDE8F0810A4A2169936823F46043CB
:102C400043EAC1039360E4E7054B1B689E03ABD4E2
:102C5000D0E70320EDE79801A6D4CBE7003C024083
:102C6000003802408CE7020840010020014B186840
:102C7000704700BF40010020044B054A9B6805498E
:102C8000C3F382230868D35CD84070470038024001
:102C90009CE7020840010020044B054A9B68054957
:102CA000C3F342330868D35CD84070470038024011
:102CB0009CE70208400100200E4B0F2202609A6838
:102CC00002F0030242609A6802F0F00282609A68A1
:102CD00002F4E052C2609B68DB0810B403F4E053D6
:102CE000054C036123685DF8044B03F00F030B6090
:102CF000704700BF00380240003C0240F0B5054676
:102D0000006810F0050F83B05CD110F0020001D113
:102D100003B0F0BD454B464C002201921A6C42F0C4
:102D200080521A641B6C03F080530193019B23684B
:102D300043F480732360FEF7F1F8064604E0FEF7E3
:102D4000EDF8801B02283AD82368D905F7D5374912
:102D5000EB680A6F12F4407203F4407010D08242A4
:102D60000ED00B6F334A23F440730124002014600B
:102D700010600B670B6FDA0713D4EB6803F4407035
:102D8000B0F5407F47D029498A6822F4F8128A605A
:102D9000264A116FC3F30B030B430020136703B0E4
:102DA000F0BD0C46FEF7BAF841F288360746236FAD
:102DB0009B07E2D4FEF7B2F8C01BB042F7D903205C
:102DC00003B0F0BD1C4B194C00221A60FEF7A6F8A8
:102DD000064604E0FEF7A2F8801B0228EFD823681D
:102DE0001F01F7D4D5E90113134A104E1B0743EA1C
:102DF00081130121C4F884301160FEF78FF8044676
:102E000004E0FEF78BF8001B0228D8D833681801BD
:102E1000F7D5286879E70548826823F0704122F4E5
:102E2000F81221F440710A438260B1E70038024091
:102E300000700040400E474268004742002868D0BA
:102E400038B5437F044603F0FF02002B45D02368CA
:102E500053220220CA21607759625A62DA68550605
:102E600029D599686268D4E9045021F4E00121F081
:102E70004001996099682A4302430A43E1689A60D5
:102E800019611A69A16842EA01421A61DA6822F0FE
:102E90008002DA609A68910623D5196CA06921F442
:102EA000802119641A6CFF25024301211A64002055
:102EB0005D62617738BD4FF0FF32DA60FEF72EF8C1
:102EC000054605E0FEF72AF8401BB0F57A7F19D8D1
:102ED0002368DA685006F5D5C3E702770EF0BCFC2C
:102EE000B5E7DA6822F0A002DA60FEF717F80546C7
:102EF0002368DA689206D0D4FEF710F8401BB0F5CC
:102F00007A7FF5D92268FF2104235162012063777B
:102F100038BD0120704700BF037F012B00F0968071
:102F20002DE9F04102230E46012101770546437742
:102F30000168002A36D08C6870783278B37814F043
:102F4000400414BFF478F4704FEA002040EA0240D5
:102F500018BF240418430443CA2253234A624B6215
:102F6000CB685A0657D504F07F3424F0FE440C6039
:102F70008A68D6E9033022F480228A608A68034393
:102F800013438B60CB6823F08003CB608B689B0678
:102F90005ED5FF2000230122486218466A772B770E
:102FA000BDE8F0818F68307817F0400716BFF778DA
:102FB000F7703F0409284FF0000407D90A38C0B25F
:102FC000092804F10104F9D82401E4B273782043FC
:102FD000092B4FEA004457D900200A3BDBB2092BEA
:102FE00000F10100F9D800015FFA80FCB07843EAF3
:102FF0000C0309284FEA032344D90A38C0B2092830
:1030000002F10102F9D81201D2B23C43234310432A
:1030100043EA0004A0E74FF0FF33CB60FDF77EFFEB
:1030200007462968CB6813F040089CD1FDF776FF6E
:10303000C01BB0F57A7FF4D92A68FF2104235162BE
:10304000012085F81C806B77BDE8F0810220704775
:10305000CB6823F0A003CB60FDF760FF064629682C
:10306000CC6814F0200494D1FDF758FF801BB0F514
:103070007A7FF4D92A68FF210423516201202C773A
:103080006B778DE70022C0E74FF0000CAEE700BF82
:10309000036870B49D6A1C691B684D6003F07F3340
:1030A00023F0FE43180CC4F30E0400F0400600F0B9
:1030B0003F058C60C3F30624DBB2CE700D704C70FC
:1030C0008B70BAB9220902EB82062D091A0905EBA9
:1030D000850500F00F0004F00F0402EB820203F0FC
:1030E0000F0300EB450004EB460403EB42030870BA
:1030F0004C708B70002070BC704700BF037F012BA9
:103100007DD02DE9F04105460223012028776B7719
:103110000E78CB7848788C7876030AB346EA034376
:103120001C4344EA00242B68CA21532259625A6284
:10313000DA68510648D524F07F4424F0C0045C606E
:10314000DA6822F08002DA609A68920659D5FF2088
:10315000002201215862104669772A77BDE8F08184
:10316000C70604D520F010000A30C0B24870092B01
:103170004FF0000107D90A3BDBB2092B01F1010135
:10318000F9D80901C9B20B4309284FEA03434FF0AC
:10319000000107D90A38C0B2092801F10101F9D8A4
:1031A0000901C9B20843092C4FEA002143D90A3C5E
:1031B000E4B2092C02F10102F9D81201D0B21E4387
:1031C000314304430C43AEE74FF0FF32DA60FDF7C2
:1031D000A5FE80462B68DF6817F04007ABD1FDF7EE
:1031E0009DFEA0EB0800B0F57A7FF3D92A68FF2195
:1031F0000423516201202F776B77BDE8F081022014
:103200007047DA6822F0A002DA60FDF787FE064612
:103210002B68DC6814F0200499D1FDF77FFE801B39
:10322000B0F57A7FF4D92A68FF2104235162012086
:103230002C776B7792E70020C1E700BF03685B68DB
:1032400023F07F4323F0C00370B4C3F30724C3F318
:103250004236180C04F01F05DBB20E704D70C870BA
:103260008B70BAB92D09AA00060915441A0904F091
:103270000F0406EB860600F00F0002EB820203F05B
:103280000F0304EB450400EB460003EB42034C70D4
:10329000C8708B70002070BC704700BF036850334B
:1032A00043F82120704700BF0368503353F82100D2
:1032B000704700BF2DE9F0470D4686B0044616461C
:1032C0001F46FDF72BFE7DB3804694F83400C0B254
:1032D000012807D0A36B43F00053A363012006B07D
:1032E000BDE8F087E26DF31900219342A16323D872
:1032F000636C20680322012B84F83420C1624FF4F0
:10330000007118BF760202F0BFF8E0B1236840F206
:10331000FF529A63A36B01221843A063104684F8FE
:10332000342006B0BDE8F087A36B012043F00063B2
:10333000A36306B0BDE8F087A36B43F00073A363FB
:1033400006B0BDE8F0874FF0FF317A029023049079
:103350004FF0010A00914FF002096946206801927E
:10336000CDE90239CDF814A002F07AF857452AD9F0
:10337000C4F830903146206802F0F8F8236800283D
:10338000C5D140F22A3A09E00E9B1BB3FDF7C6FDFA
:103390000E9BA0EB080098421CD223685A6B12EADD
:1033A0000A0F5A6B23D11104EED52E1F05F11C090B
:1033B00000E02368184602F037F846F8040FB145DC
:1033C000F7D12035E0E7C4F830A03146206802F09C
:1033D00093F8D3E7236840F2FF529A63A36B01226C
:1033E00043F00043A363032084F8342077E7D20539
:1033F0000AD5012F08D9626C032A05D0184602F0BD
:1034000061F9236800285BD15A6B170720D45A6BE7
:10341000960729D45A6B900632D40E9A62B93BE0D3
:1034200002F002F845F8040BFDF778FD0E9BA0EBC7
:103430000800834237D923685A6B91021846EFD4AB
:1034400040F2FF5101229963002084F8342046E7BE
:1034500040F2FF529A63A36B012243F00803A36377
:10346000104684F834203AE740F2FF529A63A36B87
:10347000012243F00203A363104684F834202EE7B0
:1034800040F2FF529A63A36B012243F02003A3632F
:10349000104684F8342022E75A6B9202D0D51846A1
:1034A00001F0C2FF2860236840F2FF529A63A36BC9
:1034B000012243F00043A363104684F834200EE752
:1034C00040F2FF529A63A36B01220343A3631046A9
:1034D00084F8342003E700BF2DE9F0430D4687B0A0
:1034E000044616461F46FDF719FD002D37D08046CD
:1034F00094F83400C0B2012807D0A36B43F0005306
:10350000A363012007B0BDE8F083E26DF319002149
:103510009342A1632BD8636C20680322012B84F8AB
:103520003420C1624FF4007118BF760201F0ACFF85
:1035300020BB012F20682DD920232363314602F0C0
:1035400087F80346206863B340F2FF528263A26BA0
:1035500001211343A363084684F83410D2E7A36B18
:10356000012043F00063A36307B0BDE8F083A36BC1
:1035700043F00073A36307B0BDE8F083236840F213
:10358000FF529A63A36B01221843A063104684F88C
:103590003420B7E710232363314602F021F80346B5
:1035A000D0E74FF0FF32CDE903337B020092019365
:1035B0009022012369460292059340F21A3901F0E4
:1035C0004FFF08E00E9BDBB1FDF7A8FC0E9BA0EBC4
:1035D0000800984214D22268536B13EA090F536B08
:1035E00019D15E04EED505F1200600E022682946D7
:1035F0001046043501F01CFFAE42F7D13546E1E735
:10360000236840F2FF529A63A36BA363012384F8FB
:103610003430032076E7D8050AD5012F08D9636C2A
:10362000032B05D0104602F04DF8002836D1226851
:10363000536B190712D4536B9B071BD4536B13F0B6
:10364000100323D040F2FF539363A36B012243F096
:103650001003A363104684F8342053E740F2FF536D
:103660009363A36B012243F00803A363104684F81D
:10367000342047E740F2FF539363A36B012243F0EA
:103680000203A363104684F834203BE740F2FF5561
:1036900001219563184684F8341033E7236840F21B
:1036A000FF529A63A36B01220343A363104684F87D
:1036B000342027E7704700BF70B5846B236C0BB1D3
:1036C00000232364E56B05B170BD216D20680904FA
:1036D00002F01EFA064638B1A36B01221E43A66310
:1036E000A56384F8342070BD0146206801F0AEFE69
:1036F000C0F34320012305389842A66384F8343090
:10370000E2D8206801F0DEFFA36B1843A063A36B2F
:10371000204613B9FFF7CEFF70BD08F0B1F970BDB8
:1037200070B5846BE36B0BB10023E363256C05B1CB
:1037300070BD216D2068090402F0EAF9064638B12F
:10374000A36B01221E43A663A56384F8342070BDD9
:103750000146206801F07AFEC0F3432001230538BA
:103760009842A66384F83430E2D8206801F0AAFFBA
:10377000A36B1843A063A36B204613B9FFF79AFF0E
:1037800070BD08F07DF970BD70B504460068436BEC
:10379000DA0528D54FF480738363C36B23F44E732B
:1037A00023F00203C363236B13F0080F236B62D073
:1037B0009B0702D4236B9E0605D501F083FF0028EA
:1037C00040F09F802068012340F2FF52826384F81A
:1037D0003430236BDD07204602D4236B9C075ED573
:1037E00008F05AF970BD436B5D045BD4436B190458
:1037F0006AD4426B40F23A231A42F3D0436B9A07E1
:1038000003D5A36B43F00203A363436B1B0703D5EC
:10381000A36B43F00803A363436B9E0603D5A36B1E
:1038200043F02003A363436BDD0603D5A36B43F092
:103830001003A363436B990503D5A36B43F00803FF
:10384000A36340F2FF738363C36B23F44E7323F0CF
:103850000203C363236B1A0648D5206C002857D097
:103860003C4B0365FDF7C2FE0028BBD0206CBDE8D1
:103870007040FFF721BF1906B4D5236B9A0655D4C3
:10388000236BDB07AED4236B9E07ABD42268D36ACD
:10389000012123F00803D362204684F8341008F095
:1038A000F5F870BD256A4FF4804305F12006836367
:1038B00000E020682946043501F0BAFDAE42F8D197
:1038C000236A2033236270BDA66A4FF40043351F7C
:1038D00083631C3600E0206801F0A6FD45F8040F64
:1038E000B542F8D1A36A2033A36270BD236B1B07D6
:1038F0007FF578AF012384F834302046FFF7DAFEF5
:1039000070BDA36B1843A0632046FFF7D3FE59E7B1
:10391000E06BB0B1104B0365FDF768FE00283FF483
:1039200061AFE06BBDE87040FFF7FABE01F0CAFE80
:103930000028A5D0A36B1843A0632046FFF7BAFE6A
:103940009EE70123A063204684F8343008F098F8FD
:1039500070BD00BFB936000821370008436EF0B4CF
:10396000C3F383620446980F0870C3F301654A707D
:10397000C3F30740C3F30722DBB28D70C8700A712E
:103980004B71A36E1A0E1201CA80CD88C3F3035087
:10399000C3F307222843C880C3F30345D0090D723F
:1039A0004872C2F38015C2F340108D72C872C2F320
:1039B000001500200D734873606C002840F084806F
:1039C000920202F440620A6108699A0002F47F726E
:1039D0000243E36E0A610869DA0B40EA93700861FA
:1039E00002F00602C3F34255C3F38240C3F3C26739
:1039F000C3F302660F754E758D75C8750A760A7E1B
:103A0000C3F3C03002430A760A69087E01320230ED
:103A1000824062650D7A0120A840450A02FB05F24A
:103A20004FF40075C4E916022566C3F3072250005F
:103A300000F07E00C2F380124A7688768A7EC3F355
:103A4000C010024303F07F038A76CB76236F9A0D72
:103A5000DD0FC3F34174C3F3826002F00C020D77F3
:103A60004C778877CA77CA7FC3F381500243CA77FD
:103A7000C3F34055C3F30044C3F3C032002081F8C0
:103A8000205081F82100C3F3803581F8224081F86D
:103A90002320C3F34034C3F3003281F8245081F86B
:103AA0002540C3F3812581F82620C3F30124012298
:103AB000C3F3460381F8275081F8284081F8293064
:103AC000F0BC81F82A20704701280DD0236840F20D
:103AD000FF529A63A36B012243F08053A363104605
:103AE00084F83420F0BC70471B0403F47C130B6192
:103AF000E36E0A69180E42EA00220A610869C3F3FC
:103B0000074202430A610A69013292024FF40070CF
:103B10006265E265A065C3F30722206687E700BF00
:103B2000F0B5002599B0CDE90A5576230C930AAB80
:103B3000044693E80700276809958DE80700CDE95A
:103B40000755744E07AB0ECB384601F051FC0127E8
:103B50003560206801F072FC02203760FDF7E4F95F
:103B60002068069501F02EFE054638B1012084F844
:103B70003400A36B1D43A56319B0F0BD206801F0AC
:103B800049FE00284CD0A5644FF6FF75069B5A1CD1
:103B9000AB424FF00001069200F0B480206801F0C3
:103BA0006FFE0146002840F0B080206801F0A2FEC0
:103BB0000146002840F0A980206801F047FC002859
:103BC000E4DA0023636401232068ADF8163001F0C5
:103BD00039FC002800F09380626C2368032A41D1ED
:103BE0001846042101F032FC000DE0640DA92046C6
:103BF000FFF7B4FE226D20681204002301F0A8FD37
:103C000005460028B2D1231D54F8106B94E8070034
:103C10008DE8070030460ECB01F0EAFB2846ABE703
:103C2000A7644FF6FF76069B5A1CB3424FF0000183
:103C3000069267D0206801F023FE4FF080410546D0
:103C4000002893D1206801F055FE05460146002862
:103C50008CD1206801F0FAFBC30FE4D04200B0D54C
:103C60006364B0E7184601F07DFE054600287FF446
:103C70007DAF0146206801F0E9FB04216067206800
:103C800001F0E4FB0821A067206801F0DFFB0C21B4
:103C9000E067206801F0DAFB636CC4F88000032B56
:103CA00036D00DF11601206801F0CEFE0546002841
:103CB0007FF45CAF626C2368032A91D0BDF81610C4
:103CC00021651846090401F083FE054600287FF4AB
:103CD0004DAF0146206801F0B9FB04216066206801
:103CE00001F0B4FB0821A066206801F0AFFB0C21B5
:103CF000E066206801F0AAFB2368206770E74FF0B8
:103D0000806533E74FF0807530E74FF080552DE741
:103D1000236865E7A0802542C0B190F8343010B523
:103D200003F0FF0204466BB1032384F834302046CD
:103D3000FFF7F6FE00230122A3631846236384F8ED
:103D4000342010BD02770DF093FDEDE701207047A0
:103D500070B4D0E91142D0E91336456D0C604A6069
:103D6000846D8B60D0E91723C1E90365C1E9054281
:103D70000020CB6170BC7047016D10B5090404468A
:103D8000006801F0C5FE20B1A16B0843A0630020CC
:103D900010BD0146206801F059FBC0F3432010BD5F
:103DA00000283BD090F85120002370B502F0FF01AD
:103DB0000446836262B31846D4E90135D4E903218D
:103DC0002B4313436269E569266A0B431343A269D7
:103DD00021682B43022584F85150334302F40075C7
:103DE0000E682B43120C656A02F0040203432A4357
:103DF00026F040060E600B604A60CB69002223F477
:103E000000630125CB611046626584F8515070BD96
:103E100080F850100DF084FDA06ACDE701207047B6
:103E20002DE9F0410D4690F85010012982B072D072
:103E30001E46012380F8503004461746FDF76EF801
:103E4000804694F85100C0B2012809D00220012216
:103E5000002384F8512084F8503002B0BDE8F0818E
:103E6000002DF4D0002FF2D0A36820682563032230
:103E700084F85120B3F5004F4FF000026265A26351
:103E8000A287C4E91022E786A786E287024603D10B
:103E9000036843F480430360036859063FD5E36831
:103EA0006168B3F5006F00F0B080002951D115F8BA
:103EB000013B0373E38E2068013B9BB2E38602461D
:103EC000711C31D0002E52D0E38E9BB273B1836847
:103ED0009A0755D4FDF722F8A0EB080086424DD989
:103EE000E38E20689BB20246002BF0D1771C51D1A3
:103EF00083689D07FCD583681A06FCD4A3682BB998
:103F00000193C368019383680193019B606D003046
:103F100018BF01209BE7022002B0BDE8F0810368D2
:103F200043F040030360BAE7E38E9BB2002BDDD081
:103F300083689B07F8D515F8013B0373E38E20686F
:103F4000013B9BB2E386E38E9BB20246002BEFD18E
:103F5000CCE7E38E9BB2012BB2D1A8E715F8013B69
:103F60000373E38E2068013B9BB2E3860246E38E37
:103F70009BB2002BBAD083689F07EFD4032066E77B
:103F800015F8013B0373E38E2068013B9BB2E38687
:103F9000024699E78368990713D4002E00F08A80BF
:103FA000FCF7BCFFA0EB0800864240F2828020684C
:103FB00002469BE7FCF7B2FFA0EB080086422068B0
:103FC00004D983681B0699D5002EF3D14368626833
:103FD00023F0E003B2F5827F436000F09080A36A93
:103FE000B3F5005F08D103684DF6FF72134003601C
:103FF000036843F400530360012084F85100636DAB
:10400000202213436365626521E7002949D0E38ECE
:104010009BB2012B45D0771C16D0002E2FD0E38EFB
:104020009BB2002B3FF462AF8368990731D4FCF751
:1040300075FFA0EB08008642A0D9E38E20689BB2F2
:104040000246002BF0D151E7E38E9BB2002B3FF4E8
:104050004DAF83689B07F7D535F8023BC360E38E0D
:10406000013B9BB2E386E38E9BB2002BF1D13DE78F
:1040700035F8023BC360E38E013B9BB2E386E38EDF
:104080009BB2002B3FF432AF83689B077FF576AF7E
:10409000EEE735F8023BC360E38E013B9BB2E3865B
:1040A000BDE735F8023BC360E38E013B9BB2E3867C
:1040B000B1E722685368616823F0E003B1F5827FBD
:1040C000536010D0A36AB3F5005F08D113684DF6B2
:1040D000FF710B401360136843F400531360012316
:1040E00084F851304AE7A368B3F5004F02D0B3F526
:1040F000806FE7D1136823F040031360E2E7A36801
:10410000B3F5004F03D0B3F5806F7FF468AF036859
:1041100023F04003036062E72DE9F0410E4690F87A
:104120005010012982B079D004461F46012380F83F
:1041300050301546FCF7F2FE94F851106368C9B28E
:104140000129804611D0B3F5827F09D002200122D7
:10415000002384F8512084F8503002B0BDE8F0818B
:10416000A268002AF2D10429F0D1002E5AD0002DE5
:1041700058D0002F56D094F85120012A04BF0522B0
:1041800084F85120002122686165E787E78610687E
:10419000A563C4E910114106A7872663A78603D447
:1041A000116841F040011160E168B1F5006F60D025
:1041B000002B00F0BE80E38E9BB2012B00F0B98093
:1041C000089B013340F0BD8022680121E38E9BB241
:1041D0001BB9E38F9BB2002B36D071B1E38E9BB23B
:1041E0005BB193689F0708D533781373E38E226819
:1041F000013B9BB20136E3860021E38F9BB2002B8B
:10420000E4D09368D807E1D5D3682B70E38F226898
:10421000013B9BB20135E3870121D7E7022002B0C1
:10422000BDE8F081012092E7916888075CD4089A84
:10423000002A00F0F280FCF771FE089BA0EB08005A
:10424000834240F2E9802268089901311346EBD19C
:1042500093689D07FCD593681906FCD4A0680028D4
:1042600040F0D8800190D368019393680193019B3B
:104270006DE7002B00F09680E38E9BB2012B00F0DF
:104280009180089B013340F095800121E38E9BB221
:104290001BB9E38F9BB2002BD6D069B1E38E9BB2E2
:1042A00053B193689F0707D536F8023BD360E38E7E
:1042B000013B9BB2E3860021E38F9BB2002BE5D04C
:1042C0009368D807E2D5D36825F8023BE38F013B1A
:1042D0009BB2E3870121D9E7FCF720FE089B226807
:1042E000A0EB0800834205D993681B06B6D5089B4E
:1042F000002BF1D15368616823F0E003B1F5827FB0
:10430000536000F0AF80A36AB3F5005F08D1136873
:104310004DF6FF710B401360136843F400531360B4
:10432000012084F85100636D2022134363656265A8
:104330000DE716F8013B1373E38E013B9BB2E38656
:104340003EE70127E38E9BB223B9E38F9BB2002B9C
:104350003FF479AF77B1E38E9BB25BB123689A6883
:10436000910707D532781A73E38E013B9BB2013671
:10437000E3860027E38F9BB25BB123689A68D2077C
:1043800007D5DB682B70E38F013B9BB20135E387D8
:104390000127FCF7C3FD089BA0EB08008342D1D89E
:1043A0000320D4E636F8023BD360E38E013B9BB298
:1043B000E38666E70127E38E9BB223B9E38F9BB2C6
:1043C000002B3FF440AF77B1E38E9BB25BB1236823
:1043D0009A68910707D536F8022BDA60E38E013B25
:1043E0009BB2E3860027E38F9BB25BB123689A6898
:1043F000D20707D5DB6825F8023BE38F013B9BB270
:10440000E3870127FCF78AFD089BA0EB08008342A5
:10441000D1D8C5E700209AE623685A68616822F07F
:10442000E002B1F5827F5A6010D0A26AB2F5005F57
:1044300008D11A684DF6FF710A401A601A6842F4F2
:1044400000521A60012384F85130A9E7A268B2F53E
:10445000004F02D0B2F5806FE7D11A6822F0400217
:104460001A60E2E7A368B3F5004F03D0B3F5806F9D
:104470007FF449AF136823F04003136043E700BFA4
:1044800038B390F8493070B5154604460E4603F02F
:10449000FF02CBB104F10801206800F021FE314693
:1044A000A268206800F048FE2946236BD4E9010287
:1044B00000F062FEA168226852F8213043F0010347
:1044C00042F82130002070BD80F848200DF0FCFA41
:1044D000E0E70120704700BF002858D090F839303D
:1044E00070B503F0FF020446B3B32368354DE068AE
:1044F0006168022284F83920AB421A6849D0B3F1CE
:10450000804F52D0A5F57C45AB422AD005F5806599
:10451000AB4226D005F58065AB4222D005F5784543
:10452000AB421ED005F57055AB4213D005F5806542
:10453000AB420FD005F58065AB420BD0A5F59835A1
:10454000AB4207D005F58065AB4203D005F5806529
:10455000AB4232D125692DE080F838200DF03AFACF
:10456000C3E7A568266922F070022A43164D22F49B
:1045700040723243AB421A60D862996201D16269DB
:104580001A6301225A61002084F8392070BD01208D
:104590007047A668256922F07002324322F4407207
:1045A0002A431A60D8629962E9E7A668256922F071
:1045B0007002324322F440722A431A60D862996230
:1045C000DFE700BF00000140000401400368DA6833
:1045D00042F00102DA601A6842F001021A6000201B
:1045E000704700BF704700BF002858D090F839309E
:1045F00070B503F0FF020446B3B32368354DE0689D
:104600006168022284F83920AB421A6849D0B3F1BC
:10461000804F52D0A5F57C45AB422AD005F5806588
:10462000AB4226D005F58065AB4222D005F5784532
:10463000AB421ED005F57055AB4213D005F5806531
:10464000AB420FD005F58065AB420BD0A5F5983590
:10465000AB4207D005F58065AB4203D005F5806518
:10466000AB4232D125692DE080F83820FFF7BAFF40
:10467000C3E7A568266922F070022A43164D22F48A
:1046800040723243AB421A60D862996201D16269CA
:104690001A6301225A61002084F8392070BD01207C
:1046A0007047A668256922F07002324322F44072F6
:1046B0002A431A60D8629962E9E7A668256922F060
:1046C0007002324322F440722A431A60D86299621F
:1046D000DFE700BF000001400004014010B40368A0
:1046E0000C290CD8DFE801F0330B0B0B2E0B0B0B56
:1046F000290B0B0B0700DA6842F01002DA60186A27
:10470000154C012202FA01F120EA010018621A6A2E
:10471000A34241EA020119620AD0104A934207D02B
:104720001A685DF8044B42F0010200201A607047DD
:104730005A6C42F400425A64F2E7DA6842F0080226
:10474000DA60DCE7DA6842F00402DA60D7E7DA68B8
:1047500042F00202DA60D2E70000014000040140AA
:1047600090F83830012B00F0D280F0B502230124FC
:1047700080F8384080F839300C2A36D8DFE802F06B
:10478000073535356C3535359A3535353D00036897
:10479000D1F808E01D6A0F68774E25F001051D620B
:1047A0001A6AD3F804C09C6922F0020224F0730450
:1047B000B34242EA0E0244EA070400F0AA806F4DB9
:1047C000AB4200F0A6804D68C3F804C09C615D63F5
:1047D0001A629C690D6944F008049C61996921F092
:1047E000040199619A692A439A610023012280F8A1
:1047F000392080F838301846F0BD0368D1F808C079
:104800001D6A0F685C4E25F480551D621A6A5D684A
:10481000DC6922F4005224F4E644B34242EA0C324A
:1048200044EA072400F0928006F58066B34200F067
:104830008D804E685D60DC611E641A62DC690D6902
:1048400044F40064DC61D96921F48061D961DA69DA
:1048500042EA0522DA61C8E70368D1F808E01D6A78
:104860000F68454E25F010051D621A6AD3F804C082
:104870009C6922F0200224F4E644B34242EA0E127C
:1048800044EA072453D03D4DAB4250D04D68C3F8A5
:1048900004C09C619D631A629C690D6944F40064C4
:1048A0009C61996921F4806199619A6942EA0522C3
:1048B0009A619AE70368D1F808E01D6A0F682E4EE6
:1048C00025F480751D621A6AD3F804C0DC6922F4ED
:1048D000007224F07304B34242EA0E2244EA070451
:1048E0003AD0264DAB4237D04D68C3F804C0DC61E6
:1048F000DD631A62DC690D6944F00804DC61D96982
:1049000021F00401D961DA692A43DA616DE70220F6
:104910007047D1E90556CF6822F008022CF4407C9C
:104920003A43354322F0040245EA0C0C4BE7D1E947
:104930000556CF6822F080022CF4406C42EA071240
:10494000354322F040024CEA850C9FE74E6925F47E
:10495000804545EA86156CE7D1E90556CF6822F413
:1049600000622CF4405C42EA0722354322F4806264
:104970004CEA051CB8E700BF0000014000040140FC
:1049800090F83830012B67D002220368F0B480F829
:1049900039209A680C6822F47F4222F077020125C0
:1049A000402C80F838509A6000F0938018D9702C11
:1049B0007FD02BD9B4F5805F76D0B4F5005F1CD1E1
:1049C000D1E90152CC6899682A4342EA042221F4D1
:1049D0007F410A439A609A6842F480429A600CE0F0
:1049E000102C42D02FD9202C38D0302C05D19A68E9
:1049F00022F0700242F037029A600023012280F810
:104A0000392080F83830F0BC18467047502C33D02D
:104A1000602CF2D11C6A4D68CE6824F010041C6230
:104A200099691A6A21F4704122F0A00242EA051243
:104A300041EA063199611A629A6822F0700242F0E6
:104A400067029A60D9E7002CD7D19A6822F07002E9
:104A500042F007029A60D0E7022070479A6822F07D
:104A6000700242F027029A60C7E79A6822F070024B
:104A700042F017029A60C0E71D6A1E6A4C68CF6850
:104A800026F001061E629A6925F00A0122F0F00262
:104A900042EA071221439A6119629A6822F0700271
:104AA00042F057029A60A8E79A6822F007029A60DB
:104AB000A3E7D1E90152CC6899682A4342EA04226B
:104AC00021F47F410A439A609A6842F077029A6023
:104AD00093E71D6A1E6A4C68CF6826F001061E62C5
:104AE0009A6925F00A0122F0F00242EA07122143F6
:104AF0009A6119629A6822F0700242F047029A6045
:104B00007BE700BF704700BF704700BF704700BF22
:104B1000704700BF03681A69910710B5044602D5B3
:104B2000DA6892075FD41A69500702D5DA6851072C
:104B300046D41A69120702D5DA6810072ED41A690A
:104B4000D20602D5DA68D00618D41A69D10702D580
:104B5000DA68D2075DD41A69100602D5DA68110640
:104B60005FD41A69520602D5DA68500661D41A6910
:104B7000910602D5DA68920643D410BD6FF0100298
:104B80001A61DB69082213F4407F2276204664D044
:104B9000FFF7BAFF002223682276D6E76FF00802FB
:104BA0001A61DB69042299072276204652D1FFF769
:104BB000A9FF2046FFF7AAFF002223682276BEE75E
:104BC0006FF004021A619B69022213F4407F22767F
:104BD00020463CD1FFF796FF2046FFF797FF0022C3
:104BE00023682276A5E76FF002021A619B69012211
:104BF0009B07027625D0FFF787FF002223682276E5
:104C000091E76FF0200220461A61BDE8104000F0E5
:104C100051B86FF001021A61204608F0C7FC236802
:104C200099E76FF080021A61204600F045F823688A
:104C300097E76FF040021A612046FFF769FF23688B
:104C400095E7FFF75FFF2046FFF760FFD5E7FFF727
:104C50005BFFC4E7FFF758FFAEE7FFF753FF2046BF
:104C6000FFF754FF96E700BF90F83830012B1ED0B5
:104C700002460220136870B482F839005C6824F0A0
:104C80007004D1E900565C60586828435860986801
:104C900020F08000986099680024012531439960D4
:104CA000204682F8395082F8384070BC70470220A4
:104CB000704700BF704700BF704700BF002800F07A
:104CC00004812DE9F84390F83930044603F0FF02DF
:104CD000002B00F0F58023682669242284F839200F
:104CE000D86820F40050D4E90225D8601969E06939
:104CF00021F4405129431961D9686569324321F48F
:104D000016412A4321F00C0102430A43DA605A6932
:104D1000A16922F440720A43B0F5004F5A61AA4AD1
:104D200071D0934200F0D38002F58062934200F08C
:104D3000CE80FDF7A1FFA54F636800EB800000EB7C
:104D400080009B00B0FBF3F3A7FB03235B091D016D
:104D5000FDF792FF666800EB800000EB8000B60074
:104D6000B0FBF6F6FDF788FF636800EB800000EB10
:104D700080009B00B0FBF3F3A7FB03235B094FF01C
:104D8000640909FB13631B013233A7FB03235B098F
:104D900003F0F006FDF770FF626800EB800000EBA7
:104DA00080009300B0FBF3F8FDF766FFD4E9002123
:104DB00000EB80008B0000EB8000B0FBF3F3A7FB5F
:104DC00003135B0909FB13831B013233A7FB031396
:104DD000C3F3431333432B449360136923F4904389
:104DE0001361536923F02A035361D36800252021FE
:104DF00043F40053D3602846E56384F8391084F8FF
:104E00003A10BDE8F883934200F09F8002F580627B
:104E1000934200F09A80FDF72FFF6C4F636800EB20
:104E2000800000EB80005B00B0FBF3F3A7FB0323E3
:104E30005B091E01FDF720FF656800EB800000EBB9
:104E400080006D00B0FBF5F5FDF716FF636800EB21
:104E5000800000EB80005B00B0FBF3F3A7FB0323B3
:104E60005B094FF0640909FB1353DB003233A7FBE6
:104E700003231B0903F4F875FDF7FEFE626800EBDF
:104E8000800000EB80005300B0FBF3F8FDF7F4FE68
:104E9000D4E9002100EB80004B0000EB8000B0FB68
:104EA000F3F3A7FB03135B0909FB1383DB00323326
:104EB000A7FB0313C3F3421333442B4493608CE7E3
:104EC00080F838200CF0C8FD05E701207047FDF799
:104ED000E3FE3E4F636800EB800000EB80009B0028
:104EE000B0FBF3F3A7FB03235B091D01FDF7D4FE21
:104EF000666800EB800000EB8000B600B0FBF6F6C1
:104F0000FDF7CAFE636800EB800000EB80009B00A9
:104F1000B0FBF3F3A7FB03234FF064095B0909FB24
:104F200013631B013233A7FB03235B0903F0F00675
:104F3000FDF7B2FE626800EB8000930000EB80009A
:104F4000B0FBF3F8FDF7A8FE30E7FDF7A5FE1F4F15
:104F5000636800EB800000EB80005B00B0FBF3F3C4
:104F6000A7FB03235B091E01FDF796FE656800EBB6
:104F7000800000EB80006D00B0FBF5F5FDF78CFEC6
:104F8000636800EB800000EB80005B00B0FBF3F394
:104F9000A7FB03234FF064095B0909FB1353DB00F4
:104FA0003233A7FB03231B0903F4F875FDF774FEE6
:104FB000626800EB8000530000EB8000B0FBF3F868
:104FC000FDF76AFE64E700BF001001401F85EB514A
:104FD000F0B50E4690F83910202983B02DD1002E5F
:104FE0002ED0019262B31F4690F83830012B044650
:104FF00023D00023C3630121212380F8381080F8D7
:105000003930FBF78BFF019AA284E28422680546BF
:10501000E38C9BB2002B39D0E08CA168013880B2C0
:10502000B1F5805FE08419D0781C3BD1106801068F
:10503000FCD5337853600136EAE7022003B0F0BDB7
:10504000012003B0F0BD13681B060CD4002F33D031
:10505000FBF764FF401B874222682DD3781CF2D1F6
:1050600010680106FCD533882169C3F30803536037
:105070000029E0D10236CBE713685B060BD4DFB121
:10508000FBF74CFF401B8742226815D3781CF3D1F5
:1050900013685906FCD52023002084F8393084F8A1
:1050A0003800CBE713681B06C3D42FB1FBF736FFDC
:1050B000401B87422268B7D2D36823F4D073D360F1
:1050C0005369202123F0010300250320536184F854
:1050D000391084F8385084F83A1003B0F0BD00BF9E
:1050E000D1E90132F0B4D1E90365134333434C698C
:1050F000CF6B2B43D1E9066523433343D1E90864E1
:105100002B433343D1E90A6523430C6833432B43D4
:105110000E6B50F8245007493B43334329400B435F
:10512000082A08BF43F0400340F824300020F0BCB8
:10513000704700BF8000F0FF70B400EB82028C6902
:105140000B68D1E90106234343EA0013D1E9035078
:105150004C69516843EA062343EA0543013843EAB0
:105160000053023C43EA046301F040410B4300203A
:10517000536070BC704700BFB3F5804F05D06FF02F
:10518000704340F822300020704770B40B688D697E
:105190004C682B43D1E9026543EA0413064950F8F1
:1051A000224043EA062343EA054321400B4340F8EB
:1051B000223070BC002070470000F0CF2DE9F04F86
:1051C0000C6894FAA4F24E68B2FA82F234FA02F34E
:1051D00006F1FF3E79D04FF0010C03274FF00F0886
:1051E00003E0013234FA02F36FD00CFA02F32340E9
:1051F000F7D0D0F8009093FAA3FABAFA8AFA93FAA1
:10520000A3F5B5FA85F54FEA4A0A6D0007FA0AFADE
:1052100006FA05F529EA0A0949EA0505BEF1010F72
:10522000056016D8856893FAA3F9B9FA89F993FA53
:10523000A3FA4FEA490907FA09F925EA0909BAFA6E
:105240008AFA8D684FEA4A0A05FA0AF549EA05051D
:105250008560C56893FAA3F9B9FA89F993FAA3FAB4
:105260004FEA490907FA09F925EA0909BAFA8AFA57
:105270000D694FEA4A0A05FA0AF549EA0505022EC0
:10528000C560AED193FAA3FABAFA8AFABAF1070F57
:105290004FEA1325D1F8149025DC056A93FAA3FA96
:1052A000BAFA8AFA93FAA3F3B3FA83F34FEA8A0AB3
:1052B0009B0008FA0AFA09FA03F325EA0A052B43C8
:1052C0000132036234FA02F38FD1BEF1010F07D825
:1052D000CA68436802FB04F223EA040414434460EE
:1052E0000120BDE8F08FD0F824A095FAA5FBBBFA09
:1052F0008BFB95FAA5F3B3FA83F34FEA8B0B9B0074
:1053000008FA0BFB09FA03F32AEA0B0A4AEA030339
:10531000436266E782B000F1140340F2FF510022BD
:10532000816301920193019B30481B68184040B390
:10533000934228DB59002DD49A002ED4D90026D4CC
:105340001A012FD4590130D4DA0128D419022FD4EC
:105350005A0230D4990231D4DA0232D4590333D408
:105360009A0334D4D90335D41A0436D4590437D423
:105370009A0438D413F0080F14BF4FF400004FF410
:10538000803002B070474FF0007002B070474FF4A9
:105390008070F6E7402002B070478020F1E74FF4BC
:1053A0000060EEE74FF40070EBE74FF48060E8E751
:1053B0004FF48050E5E74FF40050E2E74FF48040AF
:1053C000DFE74FF40040DCE74FF40030D9E74FF45B
:1053D0008020D6E74FF40020D3E74FF48010D0E7C9
:1053E0004FF40010CDE74FF48000CAE708E0FFFD5E
:1053F00084B030B403AC84E80E000B46DDE904123F
:10540000DDE906540B4313432B43426808992343B9
:1054100030BC22F4FD420B4322F07F021343436071
:1054200004B00020704700BFD0F88000704700BF74
:105430000B68C0F880300020704700BF0323036072
:1054400000207047006800F00300704782B01430FD
:105450000144002301930191019B186802B0704739
:1054600030B4D1E90042D1E9023544620C6982626C
:10547000C26A49692B43234322F0F7020B431343CB
:10548000C36230BC002070478160194BC268194963
:105490001B6822F47F62A1FB031322F00F02590A5A
:1054A00042F48A6241F28833C26003FB01F303E0F5
:1054B000426B12F0450F05D113F1FF33F8D24FF0D4
:1054C00000407047436B5A070CD4436BDB0705D48D
:1054D0000369DBB2102B09D00120704701238363DD
:1054E000184670470423836318467047FFF712BFBE
:1054F00040010020D34D62108160C268194B1A49E7
:105500001B6822F47F6222F00F02A1FB031342F416
:105510008A62590A42F0010241F28833C26003FBF9
:1055200001F303E0426B12F0450F05D113F1FF3395
:10553000F8D24FF000407047436B5A070CD4436BCE
:10554000DB0705D40369DBB2112B09D001207047BA
:10555000012383631846704704238363184670470A
:10556000FFF7D8BE40010020D34D62108160C268B1
:10557000194B1A491B6822F47F6222F00F02A1FB2B
:10558000031342F48A62590A42F0020241F288335C
:10559000C26003FB01F303E0426B12F0450F05D13B
:1055A00013F1FF33F8D24FF000407047436B5A07B6
:1055B0000CD4436BDB0705D40369DBB2122B09D093
:1055C00001207047012383631846704704238363D7
:1055D00018467047FFF79EBE40010020D34D621071
:1055E0008160194BC26819491B6822F47F62A1FBD4
:1055F000031322F00F02590A42F48B6241F28833FE
:10560000C26003FB01F303E0426B12F0450F05D1CA
:1056100013F1FF33F8D24FF000407047436B5A0745
:105620000CD4436BDB0705D40369DBB2182B09D01C
:105630000120704701238363184670470423836366
:1056400018467047FFF766BE40010020D34D621038
:105650008160C268194B1A491B6822F47F6222F0EC
:105660000F02A1FB031342F48B62590A42F00102BC
:1056700041F28833C26003FB01F303E0426B12F096
:10568000450F05D113F1FF33F8D24FF000407047BA
:10569000436B5A070CD4436BDB0705D40369DBB2B9
:1056A000192B09D0012070470123836318467047E6
:1056B0000423836318467047FFF72CBE4001002087
:1056C000D34D6210002310B48360C2681D4B1E4C82
:1056D00019681E4B22F47F6222F00F0242F48962A5
:1056E000A4FB014142F00402490AC26003FB01F33A
:1056F0009BB1426B12F0450F03F1FF33F8D0436BBF
:105700005A0715D4436BDB070CD40369DBB20C2BAF
:1057100014D001205DF8044B70474FF000405DF855
:10572000044B7047012383635DF8044B18467047B0
:10573000042383635DF8044B184670475DF8044BFF
:10574000FFF7E8BD40010020D34D621000E1F505F0
:105750008260C268194B1A491B6822F47F6222F0EA
:105760000F02A1FB031342F48862590A42F00702B8
:1057700041F28833C26003FB01F303E0426B12F095
:10578000450F05D113F1FF33F8D24FF000407047B9
:10579000436B5A070CD4436BDB0705D40369DBB2B8
:1057A000072B09D0012070470123836318467047F7
:1057B0000423836318467047FFF7ACBD4001002007
:1057C000D34D621000238360104BC26810491B68E0
:1057D00022F47F62A1FB031322F00F02590A42F464
:1057E000806241F28833C26003FB01F302E0426B46
:1057F000120605D413F1FF33F9D24FF00040704781
:1058000040F2FF5383630020704700BF4001002037
:10581000D34D62104FF4D5738360174BC2681B6879
:105820000146164822F47F62A0FB030322F00F0218
:10583000580A42F4896241F28833CA6003FB00F3DC
:1058400003E04A6B12F0450F05D113F1FF33F8D294
:105850004FF000407047486B10F0040008D14B6BCC
:1058600013F0400302D040238B6370471846704703
:1058700040238B630420704740010020D34D621009
:105880008160C268194B1A491B6822F47F6222F0BA
:105890000F02A1FB031342F48E62590A42F0070281
:1058A00041F28833C26003FB01F303E0426B12F064
:1058B000450F05D113F1FF33F8D24FF00040704788
:1058C000436B5A070CD4436BDB0705D40369DBB287
:1058D000372B09D001207047012383631846704796
:1058E0000423836318467047FFF714BD400100206E
:1058F000D34D621041F0004141F4801110B4816039
:10590000C268164B16491B6822F47F6222F00F0210
:10591000A1FB031342F48D62590A42F0010241F2E5
:1059200088330446C26003FB01F303E0626B12F0AC
:10593000450F07D113F1FF33F8D24FF000405DF867
:10594000044B7047606B10F0040015BF042040F258
:10595000FF53A063A3635DF8044B70474001002030
:10596000D34D621000238360C268174B01461B6849
:10597000164822F47F6222F00F02A0FB030342F4D8
:105980009862580A42F0020241F28833CA6003FB6F
:1059900000F303E04A6B12F0450F05D113F1FF331A
:1059A000F8D24FF0004070474B6B5B0709D4486B4F
:1059B00010F0010015BF012040F2FF5388638B6394
:1059C000704704208863704740010020D34D621067
:1059D00010B48160C2681A4B1A491B6822F47F62B6
:1059E00022F00F02A1FB031342F49962590A42F01C
:1059F000010241F288330446C26003FB01F303E075
:105A0000626B12F0450F07D113F1FF33F8D24FF05C
:105A100000405DF8044B7047636B5B070BD4606B11
:105A200010F0010015BF012040F2FF53A063A363F3
:105A30005DF8044B70470420A0635DF8044B704789
:105A400040010020D34D6210002310B48360C2686F
:105A50002D4B2E4C1B6822F47F6222F00F02A4FB18
:105A6000034342F488625C0A42F0030241F2883345
:105A700083B0C26003FB04F303E0426B12F0450FF6
:105A800008D113F1FF33F8D24FF0004003B05DF8B6
:105A9000044B7047436B5C0713D4436B13F0010353
:105AA00008D10269D2B2032A12D0012003B05DF8F6
:105AB000044B704701238363184603B05DF8044B21
:105AC000704704238363184603B05DF8044B7047A6
:105AD00000F1140240F2FF54846301930192019B90
