:020000040800F2
:100000000050002051AF0008599800085B98000884
:100010005D9800085F9800086198000800000000E3
:1000200000000000000000000000000063980008CD
:1000300065980008000000006798000869980008AB
:1000400099AF000899AF000899AF000899AF000870
:1000500099AF000899AF000899AF000899AF000860
:1000600099AF000899AF000899AF000899AF000850
:1000700099AF000899AF000899AF000899AF000840
:1000800099AF000899AF000899AF000899AF000830
:1000900099AF000899AF000899AF000899AF000820
:1000A00099AF000899AF000899AF000899AF000810
:1000B00099AF000899AF000899AF000899AF000800
:1000C00099AF000899AF000899AF000899AF0008F0
:1000D00099AF000899AF000899AF000899AF0008E0
:1000E00099AF000899AF000899AF00080000000020
:1000F0000000000000000000000000000000000000
:0C01000000000000000000005FF808F1A3
:10010C00044B05481B1A062B02D9044B03B11847A4
:10011C00704700BF930000209000002000000000FA
:10012C0005490648091A891001EBD171491002D012
:10013C00034B03B11847704790000020900000203B
:10014C000000000010B5064C237843B9FFF7D8FF28
:10015C00044B13B10448AFF300800123237010BD8E
:10016C009000002000000000CCB1000808B5084B3E
:10017C001BB108480849AFF300800848036813B95D
:10018C00BDE80840CCE7064B002BF9D09847F7E7C1
:10019C0000000000CCB1000894000020900000206A
:1001AC00000000009140031C90409C46203A934074
:1001BC00194352426346D3401943704746F696138F
:1001CC0080EA104080EA102080EA101000F00F0046
:1001DC0043FA00F000F00100704700BF10B5044670
:1001EC00002834D00023836290F851300BB909F009
:1001FC0009FC6168A06802230843E16884F8513067
:10020C00084321692368084361691A680843E16956
:10021C0022F040020843216A1A600843A269A16ACD
:10022C00084302F4007101431960120C616A02F078
:10023C0004020A435A60E26A00201A61DA6922F465
:10024C000062DA610123606584F8513010BD012031
:10025C0010BD2DE9F04104460F4690461E46069D02
:10026C00236898683840C21B50425041404533D0F7
:10027C00711CF6D04EB923685A6822F0E0025A601D
:10028C006268B2F5827F11D105E00AF043FE401B93
:10029C00B042E5D3EFE7A268B2F5004F02D0B2F559
:1002AC00806F03D11A6822F040021A60A26AB2F57C
:1002BC00005F08D14DF6FF7219680A401A601A687F
:1002CC0042F400521A60012384F85130002384F860
:1002DC0050300320BDE8F0810020BDE8F08113B55B
:1002EC000B460092802100220446FFF7B2FF20B19A
:1002FC00636D032043F02003636502B010BD10B59D
:10030C00044680B10268022380F85130136823F050
:10031C004003136009F0A0FB0020606584F85000D6
:10032C0084F8510010BD012010BD2DE9F043984612
:10033C0090F8503085B0012B04460D4616460C9FA4
:10034C0000F0FA80012380F850300AF0E3FD94F8B5
:10035C0051308146DBB2012B61680AD0B1F5827F46
:10036C0040F0E080A268002A40F0DC80042B40F0D2
:10037C00D980002D00F0D880002E00F0D580B8F187
:10038C00000F00F0D18094F85130A663012B04BF0C
:10039C00052384F851300023636523646364236868
:1003AC00A4F83E80A4F836801A68A4F83C80500665
:1003BC0058BF1A68256358BF42F04002A4F8348035
:1003CC0058BF1A60E268B2F5006F50D119B1E28ED5
:1003DC0092B2012A06D135F8022BDA60E38E013B8A
:1003EC009BB2E3864FF00108E38E9BB2002B2FD01B
:1003FC00B8F1000F12D0E38E9BB26BB123689A68F0
:10040C00910709D535F8022B4FF00008DA60E38E1E
:10041C00013B9BB2E38601E04FF00108E38F9BB2F6
:10042C0063B123689A68D20708D5DB684FF00108DE
:10043C0026F8023BE38F013B9BB2E387781CD3D0B9
:10044C000AF068FDC9EB0000B842CDD303206CE084
:10045C00E38F9BB2002BCBD1CDF80090204602212C
:10046C0001223B46FFF7F5FE0028EFD146E019B11B
:10047C00E28E92B2012A06D115F8012B1A73E38E83
:10048C00013B9BB2E3864FF00108E38E9BB2002B3D
:10049C002FD0B8F1000F12D0E38E9BB26BB1236852
:1004AC009A68910709D52A784FF000081A73E38EE1
:1004BC000135013B9BB2E38601E04FF00108E38F6D
:1004CC009BB26BB123689A68D20709D5DB680136F9
:1004DC0006F8013CE38F4FF00108013B9BB2E38728
:1004EC007B1CD2D00AF016FDC9EB0000B842CCD36D
:1004FC00ACE7E38F9BB2002BCBD1ADE7204639465E
:10050C004A46FFF7ECFE10B1202363650CE0A368AC
:10051C005BB922680393D1681846039192680392E1
:10052C00039A02E0022000E00120012384F85130FC
:10053C00002384F8503000E0022005B0BDE8F083C1
:10054C000368F7B5DA07054657D5384CE369DB0085
:10055C005FBFE369012643F08053E36157BFE36952
:10056C00002603F08053019358BF019B304B1A684F
:10057C00D70505D5236A2D4913F4407312D116E023
:10058C001A6842F480721A600AF0C4FC0746284BC1
:10059C001B68D805EED40AF0BDFCC01B6428F6D944
:1005AC00032040E06A6802F4407293420CD1236A43
:1005BC001E4923F440726B6813432362EEB1CB697E
:1005CC0023F08053CB6118E00B6A1A4A012717609D
:1005DC0023F44070002717600862D907E7D50AF0AA
:1005EC0099FC0746236A9A07E1D40AF093FC41F27E
:1005FC008833C01B9842F5D9D2E72868830741BFDE
:10060C000A494B6823F44042AB6844BF13434B6028
:10061C0010F0100007D0054900204B6823F480022D
:10062C00EB6813434B6003B0F0BD00BF00100240F9
:10063C000070004040044242354BF0B503F1100607
:10064C000446374687B002AD2A4618685968083305
:10065C0003C2B3421546F7D13B88022CADF80430E7
:10066C0045D0102C02D0012C4FD122E0294B5968D7
:10067C0018681A4610F0807048D0C1F38343C90340
:10068C0048BF516806A844BFC1F340410918034450
:10069C0044BF11F8140C204913F8103C4CBFB1FBAB
:1006AC00F0F01E48584353685B022FD440000323DC
:1006BC0025E040F20231174A136A1940B1F5817FE7
:1006CC0020D003F44073B3F5007F05D1536A49F68B
:1006DC00404013F0020F07E0B3F5407F15D14FF205
:1006EC002440136813F4003F08BF00200EE000F014
:1006FC008BFA084B5B68C3F3813301335B00B0FBAF
:10070C00F3F003E04FF4004000E0002007B0F0BD30
:10071C00E4B100080010024000127A0000093D000C
:10072C000368F7B5DB07054603D42B689F074FD446
:10073C0090E0974C636803F00C03042B07D06368BC
:10074C0003F00C03082B0AD16368DE0307D523687A
:10075C009C03EAD56B68002BE7D1012067E16B683D
:10076C00B3F5803F13D05BB9236823F48033236047
:10077C00236823F4802323600AF0CCFB064623E095
:10078C00B3F5A02F236806D143F48023236023689C
:10079C0043F4803305E023F480332360236823F48F
:1007AC00802323600AF0B6FB064623689803BCD46A
:1007BC000AF0B0FB801B6428F7D9032037E10AF05C
:1007CC00A9FB801B6428F8D823689903F7D4ACE7FD
:1007DC006F4C636813F00C0F07D0636803F00C03C5
:1007EC00082B10D16368DA030DD423689B0702D55C
:1007FC002B69012BB1D123686A6923F0F80343EA12
:10080C00C203236026E02A69624BB2B101221A604E
:10081C000AF080FB064623685D4A9F0705D40AF060
:10082C0079FB801B0228F6D9C7E71368696923F0A6
:10083C00F80343EAC10313600CE01A600AF06AFB88
:10084C0006462368980705D50AF064FB801B02282E
:10085C00F7D9B2E72B68190703D42B685A072DD4A4
:10086C0092E0AA694A4C4C4BDAB101221A600AF0A8
:10087C0051FB0646636A9B0705D40AF04BFB801BB1
:10088C000228F7D999E7454B4FF4FA521B68B3FB92
:10089C00F2F3019300BF019B5A1E0192002BF9D178
:1008AC00DBE71A600AF036FB0646636A9F07D4D56D
:1008BC000AF030FB801B0228F7D97EE7344CE36941
:1008CC00D8005FBFE369012643F08053E36157BF53
:1008DC00E369002603F08053009358BF009B304B14
:1008EC001A68D10503D5EB68012B11D123E01A68E6
:1008FC0042F480721A600AF00DFB0746284B1B6805
:10090C00DA05F0D40AF006FBC01B6428F6D954E7CC
:10091C005BB9236A23F001032362236A23F00403E7
:10092C0023620AF0F7FA074626E0052B236A06D164
:10093C0043F004032362236A43F0010305E023F030
:10094C0001032362236A23F0040323620AF0E2FA10
:10095C000746236A9B0712D40AF0DCFA41F288336B
:10096C00C01B9842F5D928E70AF0D4FA41F2883333
:10097C00C01B98423FF621AF236A9807F4D41EB1EE
:10098C00E36923F08053E361EA695AB900204EE031
:10099C000010024000004242800442421C00002031
:1009AC0000700040234C636803F00C03082B3FF4E9
:1009BC00D4AE214E0023022A33602CD10AF0AAFABD
:1009CC00074622681B4B910105D50AF0A3FAC01B00
:1009DC000228F6D9F1E62F6AB7F5803F01BF5968B6
:1009EC0021F40030A968014308BF59606A6A636842
:1009FC003A4323F4741313436360012333600AF006
:100A0C0089FA054623689A01C0D40AF083FA401B80
:100A1C000228F7D9D1E60AF07DFA054623689B0136
:100A2C00B4D50AF077FA401B0228F7D9C5E603B013
:100A3C00F0BD00BF0010024060004242194B70B57F
:100A4C0003F110052E4686B002AC22461868596890
:100A5C00083303C2AB421446F7D133881249ADF8C0
:100A6C0004304B6803F00C02082A17D1C3F38342FD
:100A7C0006A8DB03024412F8100C41BF0B4B4A686A
:100A8C005843C2F3404343BF06AA9B1813F8143CC7
:100A9C00074B4CBFB0FBF3F0584300E0034806B0E3
:100AAC0070BD00BFF6B100080010024000127A00C1
:100ABC0000093D004D4AF8B51368054603F00703DD
:100ACC0099420E460AD82968880713D548484368C6
:100ADC0023F0F002AB68134343600BE0136823F080
:100AEC0007030B431360136803F007038B42EAD030
:100AFC000120F8BDCA0706D43C4A136803F007036B
:100B0C009E4244D34DE06B68394C012B226802D1D4
:100B1C0012F4003F06E0022B02D112F0007F01E03C
:100B2C0012F0020FE4D0626822F0030213436360F8
:100B3C000AF0F0F96B680746012B0DD1636803F0DE
:100B4C000C03042BD8D00AF0E5F941F28833C01B12
:100B5C009842F3D90320F8BD022B13D1636803F03C
:100B6C000C03082BC8D00AF0D5F941F28833C01B0E
:100B7C009842F3D9EEE70AF0CDF941F28833C01B65
:100B8C009842E7D8636813F00C0FF4D1B4E71368FC
:100B9C0023F0070333431360136803F00703B342D6
:100BAC00A6D12968124C11F0040F05D0636823F408
:100BBC00E062EB68134363600B0741BF63682A690B
:100BCC0023F4605343EAC20348BF6360FFF736FF68
:100BDC006368084AC3F30313D35CD840064B186010
:100BEC0000200AF055F90020F8BD00BF002002409B
:100BFC0000100240ECF400081C000020014B1868A7
:100C0C00704700BF1C000020044B054A5B68C3F30F
:100C1C00C223D35C034A1068D840704700100240CE
:100C2C00FCF400081C000020890001F1804101F552
:100C3C00D84192B20A607047890001F1804101F5F8
:100C4C00D841086880B2704710B50468A069E369A0
:100C5C00A16982B288B2824217BFE3699BB29BB290
:100C6C0043EA004008BF43EA024010BD0368186A1B
:100C7C005B6A9BB243EA0040704703090A2200F00A
:100C8C000F0002FB0300C0B27047022970B500F5DB
:100C9C00FA664FF0170414D84C430921B4FBF1F455
:100CAC00043200F2CF7032444FF4C871B0FBF1F152
:100CBC006423224402EB9002B0FBF3F00A44131AB3
:100CCC0011E04C430921B4FBF1F4951C354429196E
:100CDC004FF4C874B6FBF4F46420B6FBF0F001EBEF
:100CEC00960121440B1A0720B3FBF0F0C0EBC000B7
:100CFC00181AC0B270BD38B504460AF00BF9054697
:100D0C0023685A68920607D40AF004F9401BB0F520
:100D1C007A7FF5D9032038BD5A68002042F01002C2
:100D2C005A6038BD026838B55368044623F0100386
:100D3C0053600AF0EFF8054623685B689B0607D4FE
:100D4C000AF0E8F8401BB0F57A7FF5D9032038BDDE
:100D5C00002038BD38B505460C46FFF7CCFF58B916
:100D6C002B68220CA4B29A612846DC61FFF7DAFFEB
:100D7C00003018BF012038BD012038BD38B50546FC
:100D8C000C46FFF7B8FF58B92B68220CA4B21A62B4
:100D9C0028465C62FFF7C6FF003018BF012038BD43
:100DAC00012038BDF8B5044600284DD000294BD0A1
:100DBC00037C0226012B48D0012303744674087867
:100DCC004D788F783AB93C236B434FF4616505FB42
:100DDC000030C5190FE0FFF750FF06462846FFF715
:100DEC004CFF3C2358434FF4616505FB0605384620
:100DFC00FFF743FF054420462946FFF7ABFF0646A5
:100E0C0020B104236374002323741DE02268204660
:100E1C00536823F005035360FFF728FF431C01467A
:100E2C000DD0A8420BD201F5A831204601F5C071B6
:100E3C00FFF7A4FF18B104236374267404E00123A4
:100E4C0063740023237400E001263046F8BD0000D3
:100E5C00F8B50D460446002855D0002953D0037C24
:100E6C000220012B50D0012323746074C8784F7872
:100E7C008E781AB9E0736773A6730AE0FFF7FDFE6C
:100E8C00E0733846FFF7F9FE60733046FFF7F5FE66
:100E9C00A073E07B617BA27BFFF7F7FE20732870C9
:100EAC002046FFF7D1FE4FF46163B0FBF3F3182B30
:100EBC0024D91825B3FBF5F3144D05FB1305204677
:100ECC002946FFF747FF064620B10423637400232D
:100EDC00237418E02046FFF7C9FE431C01460DD0D1
:100EEC00A8420BD201F5A831204601F5C071FFF7DD
:100EFC0045FF18B104236374267404E00123002019
:100F0C0063742074F8BD0120F8BD00BF805101004E
:100F1C0038B50446A8B10268536823F0080353603F
:100F2C0009F0F8FF054623685B681B0707D409F036
:100F3C00F1FF401BB0F57A7FF5D9032038BD0020B6
:100F4C0038BD012038BD000010B50446002847D03C
:100F5C00437C03F0FF0213B9027408F035FD022341
:100F6C0063742046FFF7D4FFD8B92046FFF7C3FEC1
:100F7C00B8B92268536823F007035360A268194B71
:100F8C001AB1196B21F001011963D96A21F460714E
:100F9C000A43DA626068431C07D10120FFF74CFB5F
:100FAC0010B9042363741BE001382268936823F0A2
:100FBC000F0343EA10439360D36880B21B0C1B04ED
:100FCC001843D0602046FFF7ADFE012318B1042270
:100FDC006274184610BDE0736373A373637410BD21
:100FEC00012010BD006C00400023F7B51D46012206
:100FFC000C68AA401440944240F0AC804A68122A13
:10100C002BD00ED8022A25D004D84AB3012A30D1CD
:10101C00CB682EE0032A1BD0112A2AD1CB680433CB
:10102C0027E04F4EB2421BD006D8A6F58016B2422E
:10103C0016D006F5803608E04A4EB24210D006F5BE
:10104C008036B2420CD0A6F58016B24211D107E020
:10105C0000230EE0CB6808330BE0CB680C3308E0C0
:10106C008B682BB1012B0CBF04614461082300E099
:10107C000423FF2C97BF8646A5F108070668AF002E
:10108C0084BF4668BF004FF00F0202FA07FC26EA45
:10109C000C0603FA07F746EA070688BF00F1040EB0
:1010AC00CEF800604F68FE0054D52F4E05F0030CAF
:1010BC00D6F818E04FEA8C0C4EF0010EC6F818E08A
:1010CC00B66902FA0CF206F001060196019E25F0B3
:1010DC00030606F1804606F58036D6F808E02EEABF
:1010EC00020E224A90420ED002F5806290420CD041
:1010FC0002F5806290420AD002F5806290420CBFE9
:10110C000322042204E0002202E0012200E0022279
:10111C0002FA0CF242EA0E02B260154A17F4803F52
:10112C00166814BF2643A6431660566817F4003F92
:10113C0014BF2643A6435660966817F4801F14BF4D
:10114C002643A6439660D668BF024CBF344326EABA
:10115C000404D4600135102D7FF449AF03B0F0BD09
:10116C000000211000003110001002400008014066
:10117C0000040140F0B5002531FA05F35DD00124DF
:10118C00AC400C4057D0FF2C98BF86466FEA040445
:10119C008BBFA5F1080703684368AF0088BFBF0089
:1011AC004FF00F0606FA07F223EA02034FF004028F
:1011BC0002FA07F288BF00F1040E1343CEF8003098
:1011CC00C36825F00302234002F18042C36002F59C
:1011DC00803205F003079368BF00BE4006EA030E99
:1011EC00164B98420ED003F5806398420CD003F551
:1011FC00806398420AD003F5806398420CBF0323A6
:10120C00042304E0002302E0012300E00223BB409E
:10121C009E4510D1936823EA0606094B96601A681E
:10122C0022401A605A6822405A609A6822409A609A
:10123C00DA681440DC6001359EE7F0BD000801401F
:10124C00000401408368194214BF0120002070473C
:10125C0002B909040161704730B5052395B00A93B2
:10126C004FF4803301240B930022022512930AA819
:10127C004FF440130C920D940E9411951393FFF7A9
:10128C004FFA00B1FEE70F23059307904FF48063EC
:10129C000990294605A806950893FFF70BFC00B1A9
:1012AC00FEE74FF4807301A801940293FFF748F90D
:1012BC00044600B1FEE7FFF7A1FC4FF47A73B0FBD4
:1012CC00F3F009F077FD042009F08AFD4FF0FF30B0
:1012DC002146224609F03EFD15B030BD08B50F4A37
:1012EC000F4B4FF4827C83E80410002290424FF4A1
:1012FC000071996114BF114608219A60DA601A6175
:10130C005A611A625A629A6218460A22D961DA62E2
:10131C00FEF764FF00B1FEE708BD00BF00300140DE
:10132C003401002000B58BB009F0D6FDFFF794FF17
:10133C00564B57489A691C2142F010029A619A69DF
:10134C00012402F010020292029A9A69032542F0DB
:10135C0020029A619A69002602F020020392039AF5
:10136C009A6942F004029A619A6902F004020492AA
:10137C00049A9A6942F008029A619B69002203F070
:10138C0008030593059BFFF763FF414802210122E7
:10139C00FFF75EFF3F484FF400510022FFF758FF64
:1013AC003C484FF440610122FFF752FF00223948BC
:1013BC004FF48051FFF74CFF1E23354806A90693C6
:1013CC0009950794FFF710FE4FF43053314806A9E6
:1013DC00069309950794FFF707FE2F4B2C4806A997
:1013EC00079308960694FFF7FFFD4FF480532948A6
:1013FC0006A9069309950794284DFFF7F5FD4FF4C0
:10140C007E73244806A9069307960894FFF7ECFD13
:10141C00234B284621462B6043F2F226FFF70CFCA7
:10142C00B0422BD04FF0FF336B6028464FF48073E3
:10143C00AB60FFF789FD00B1FEE78DF805008DF874
:10144C00060001A9284622468DF80440FFF7AAFCA5
:10145C0000B1FEE78DF81B0006A9284622468DF840
:10146C0018408DF819408DF81A40FFF7F1FC00B1C7
:10147C00FEE7284621463246FFF7D6FB0020FFF751
:10148C002DFF00F047FC00F06DFCFCE70010024063
:10149C0000080140000C0140000021102001002038
:1014AC00002800400023034A002199540133602B8B
:1014BC00F9D17047A43C00200023034AFF21995422
:1014CC000133602BF9D17047A43C0020054BFF225F
:1014DC001A705A709A70DA701A715A719A71DA71AC
:1014EC00704700BF08000020012310B50838054CD8
:1014FC008B4012B1225C134302E0225C22EA03030C
:10150C00235410BD08000020F8B5524B52499C687A
:10151C00524BC4F3CF041D6804F07F0700260E70F5
:10152C0087F07F0705BB0C20032104F01002FFF7A6
:10153C00DBFF0C20042104F00102FFF7D5FF04218E
:10154C0004EA01020B20FFF7CFFF0C20022104F06C
:10155C000802FFF7C9FF0C20294604F02002FFF710
:10156C00C3FF0F20294621E0012D24D10C20294650
:10157C0004F01002FFF7B8FF0C20022104F0010266
:10158C00FFF7B2FF042104EA01020C20FFF7ACFFC5
:10159C000C20032104F00802FFF7A6FF31460C20B3
:1015AC0004F02002FFF7A0FF0F20314604F00202E6
:1015BC00FFF79AFF4CE0022D1AD10B20032104F007
:1015CC001002FFF791FF0B20294604F00102FFF7F0
:1015DC008BFF0B20314604F00402FFF785FF0B2034
:1015EC00012104F00802FFF77FFF0B200421D7E74D
:1015FC00032D1FD10920314604F01002FFF774FFB0
:10160C00012104EA01020820FFF76EFF0A2031468F
:10161C0004F00402FFF768FF0A20012104F008021D
:10162C00FFF762FF0F20314604F02002FFF75CFF4A
:10163C000E20BAE7042D0BD1BBB203F0340203F039
:10164C000100521042EA8002C3F3C00313430B7033
:10165C003846F8BD000C0140B8000020B400002052
:10166C00C3B21F2B10B5044604D1FFF74DFF0D4B31
:10167C00187810BDFE2B12D1FFF746FF0823FF2070
:10168C0044FA03F2D2075EBF074AD21812F8082CAC
:10169C0003F1010358BF1040102BF1D110BDFF20F6
:1016AC0010BD00BFB800002008000020C0B2FE280A
:1016BC000AD1064B11F0180F1980054B14BF4FF4CB
:1016CC0000524FF000521A61704700BF8C0100208D
:1016DC00000C014030B50028B4BF4FF0FF3401249A
:1016EC00214641430E4B4FF00002DA774FF03002A7
:1016FC009A7703F11E0012D00A2391FBF3F50246F0
:10170C0003FB1513303302F8013929460DB110468D
:10171C00F2E7013403D12D231370104630BD30BDD8
:10172C00B9000020034606480022827003F00F0225
:10173C00C3F303133032303342700370704700BF71
:10174C00AC0000202DE9F3411FFA80F8022092FB37
:10175C00F0F0404284B28EB295B29FB2A1194046CD
:10176C002B46009789B2012207F0C8F908EB040058
:10177C00009780B231462A46012307F0BFF902B028
:10178C00BDE8F08113B507F0CDF9044607F0D0F9A8
:10179C000346002000900146224607F0AFF902B044
:1017AC0010BD000010B56FF0040100230022D01F03
:1017BC00412804D8312994BF0020012000E00120E9
:1017CC00941F412C12D950B115484C1D00F8232000
:1017DC0000EB830044700133002444809BB2B3F5CA
:1017EC00257F09D00232502AE1D102E03129F6D905
:1017FC00E9E701313729D9D10A4A00230020506486
:10180C00074899B200EB83000133A2F84010582B23
:10181C0041F40051418002F14802EFD110BD00BFEC
:10182C008E010020E42300200A4B30B51C680023F5
:10183C0019461846084D482202FB0352526CA21A54
:10184C008A42C8BF184603F10103C8BF1146582B82
:10185C00F0D130BDDC000020E423002038B5094C69
:10186C00850063190A465988490406D514F82000E6
:10187C0059788000890007F023F82C4400236380FA
:10188C0038BD00BF8E01002070B50E461546074BC3
:10189C0045F4005503EB800413F820206178900088
:1018AC008900324607F03EF8658070BD8E0100203D
:1018BC002DE9F843194BA0F5B6471A68C7F38F17F3
:1018CC0001321A60164A804602EB870252881E4685
:1018DC0012F4005F4FF04805124C04D0C2F308021A
:1018EC0005FB024411E0FFF79FFF814605FB004416
:1018FC00B4F840002146FFF7B1FF384621461FFAE5
:10190C0089F2FFF7C1FFA4F84070336808F03F0874
:10191C00636414F80800BDE8F88300BFDC00002005
:10192C008E010020E4230020B0F5804F034601D245
:10193C00074A08E0B0F5B04F01D2064A03E0B0F513
:10194C00B64F02D2044A985C7047FFF7B1BF00BF94
:10195C00D5B40008DECBFF1F04E5FF1F38B50546E4
:10196C00013080B2FFF7E0FF04462846FFF7DCFFAA
:10197C0040EA042080B238BD2DE9F74F1D4AA0F58E
:10198C00B64B13688946CBF38F1B1B4901334FEAC7
:10199C008B0613608B195B88824613F4005F174625
:1019AC0088464FF04805154C04D0C3F3080305FBDB
:1019BC00034411E0FFF738FF05FB0044019021467A
:1019CC00B4F84000FFF74AFF019A5846214692B2FC
:1019DC00FFF75AFFA4F840B03B6846446364738831
:1019EC000AF03F0043F4804304F80090738003B086
:1019FC00BDE8F08FDC0000208E010020E4230020E5
:101A0C00B0F5804F30B503460C4629D3B0F5B04F36
:101A1C0010D200F4C051C2B242EAD102114DD0082A
:101A2C00012102F0030201FA02F2295C0A432A5452
:101A3C000D4A0FE0B0F5B64F0ED2A0F5B0439BB2F5
:101A4C00084DD80803F0030101228A40295C0A439F
:101A5C002A54064AD45430BDBDE83040FFF78CBF41
:101A6C0030BD00BFA43C0020DECBFF1F043D002096
:101A7C0038B504460D46C9B2FFF7C2FF601C290AEF
:101A8C0080B2BDE83840FFF7BBBF00002DE9F04F36
:101A9C009948BFB0994907F031FF002840F02881E0
:101AAC0007F002FB0246002840F02281944893493B
:101ABC0008F08EFD0546002840F01A81FFF762FE03
:101ACC00AA462E460CA88D4909F05DF8002840F076
:101ADC00C78004460CA806A909F0ABF8002840F012
:101AEC00BB809DF82130002B00F0B6800DF1210059
:101AFC0084490222013509F033FB0028EAD114A8ED
:101B0C000DF12101012208F09DFD0028E2D1BAF16E
:101B1C00000F34D14FF0050B94FBFBF303EB830860
:101B2C00C8EB040808FA0BF2D0464FF0180B0BFB6D
:101B3C0003FB039214A81EA9602205AB08F0E0FE7B
:101B4C0008EB0B094FEA49091FFA89F9002707EB43
:101B5C0047021EAB1A44039B4946F8184000022367
:101B6C000093019380B21346013706F085FF202FB6
:101B7C00EDD108F10108B8F1180FDBD167E0B442E0
:101B8C0065DBFFF7FFFD18241EAE14A8314660225A
:101B9C0005AB08F0B5FE013CF6D15B49162205AB4E
:101BAC0014A808F0ADFE5949082205AB14A808F09A
:101BBC00A7FE0DF11301012205AB14A808F0A0FE3D
:101BCC00534C9DF813300DF113012360012205AB2A
:101BDC0014A808F095FE9DF813300DF11301636005
:101BEC00012205AB14A808F08BFE9DF8133014A845
:101BFC00A3600DF1130105AB012208F081FE9DF8E5
:101C0C0013304FF48045E36014A83146802205ABB5
:101C1C0008F076FE00246019315D80B20134FFF7C4
:101C2C00EFFE802CF7D18035B5F5803FECD114A8B0
:101C3C0008F09AFF0CA808F0EAFF00202F49024692
:101C4C0008F0C6FC2D4807F075FE012051E014A8E1
:101C5C00013408F089FF3DE70CA808F0D8FF00E03C
:101C6C000024BAF1010F3BD04FF0FF331E932046F6
:101C7C00002C3ED001260024FFF72CFD2821322217
:101C8C004FF4FC630096019406F0A8FF2846FFF77A
:101C9C0021FD0096019428213C224FF4FC6306F0B0
:101CAC009DFF1E98431C07D107F098F80028FBD025
:101CBC001EA807F007F8F4E708224FF6E0731F9907
:101CCC00FFF740FD1F9B302693FBF6F61E9B402230
:101CDC0093FBF2F306EB86061E444FF0010AF1E685
:101CEC0000200649024608F073FC044807F022FE67
:101CFC0000203FB0BDE8F08FD8F40008DE230020B0
:101D0C000440002018B200083C420020344200205D
:101D1C005842002013B506F079FD282006F04EFD40
:101D2C0006F000FF044606F003FF034600200146C0
:101D3C000090224606F0E2FE06F0B0FFFFF722FD0F
:101D4C00FFF730FD012000F0F7F9FFF79FFE20B9F7
:101D5C00FFF718FD012000F0EFF902B0BDE81040CC
:101D6C00FFF7AABB2DE9F04FB9B009F0D3F8B34D8A
:101D7C0080462B68BBB9B24B1B68B3B9B14AB249A8
:101D8C0013688B4202DC00F005FAF7E7A3F5883301
:101D9C00A3F580731360AD4A1368A3F58833A3F5DC
:101DAC008073136001E0FFF787FB09F0B3F804467A
:101DBC0009F0B0F8C8EB0000132803D8012009F093
:101DCC00AFF8F5E700232B60C8EB040807F006F822
:101DDC0050B19A4B01251D60FFF758FE20B9FFF753
:101DEC00D1FC284600F0A8F909F094F8984D2B681E
:101DFC00C01A272840F2FA8009F08CF82860954820
:101E0C00FEF77DFA0120FFF769FA934B1A6822F06E
:101E1C0040021A601A6842F040021A608F4B904AD6
:101E2C001B88108803F00701884236D013F0020F8C
:101E3C00118014BFD722002213F0040F8DF820203C
:101E4C0014BFD722002213F0010F14BFD723002395
:101E5C00C8258DF821208DF8223000951C201421E6
:101E6C0008AA042306F0D2FD00954FF490701421BB
:101E7C0008AA0423042506F0C9FD1C20142108AA75
:101E8C004FF48473009506F0C1FD00951C20D821F9
:101E9C0008AA4FF4847306F0B9FD4FF47A73B4FBBF
:101EAC00F3F404F001030393002505F118039BB22E
:101EBC0007936C4B4FEA85094B440693002404EBC3
:101ECC0009036949DA108A5C03F0030342FA03F34D
:101EDC00DF076BD5069B1A5DC2F38013002B14BF72
:101EEC00FF21D721160605D5039818B1002B14BF76
:101EFC00D721FF21C2F340034B43DBB20493C2F35F
:101F0C00C0034B43C2F3800602F00107C2F300107A
:101F1C00C2F3401E4E434F4348430EFB01FEDBB25F
:101F2C00F6B2FFB2C0B25FFA8EFE059300214A19D9
:101F3C004FEA820A4FEA022C0AF0E00A0CF4E06C39
:101F4C00520102F4C0524AEA0C0C4CEA020C474A09
:101F5C0038AB224412F80CB0182202FB01324FF0BD
:101F6C00070CBE3A4BFA0CFA0AF0010A049BBAF1C0
:101F7C00000F14BF9A46824602F802AC14BFB24658
:101F8C00F246059B02F801AC14BFBA469A461CF106
:101F9C00FF3C02F803ABE5D201310829C7D1201D63
:101FAC00C00080B2079908AA06F002FD0134202C6B
:101FBC0085D10835C02D7FF478AF274C06F08CFF07
:101FCC00236823F040032360236843F0400323601D
:101FDC0006F082FF236823F040032360236843F05C
:101FEC0040032360FFF75EFAFFF770FA204B144DA5
:101FFC0001241C612B683BB9FFF786FA400674D5A7
:10200C002C60FFF763FA70E0322008F089FFFFF7CD
:10201C007BFA10F0180F174C02D02368043304E03D
:10202C0010F0050328D023680133052293FBF2F24C
:10203C0002EB82029B1A236028E000BF10000020F4
:10204C00B0000020E0000020FF10010054420020EE
:10205C000400002034010020003001408C010020DD
:10206C0000000020043D0020A43C0020DE0B0020DA
:10207C0058420020B400002010F0220F09D02B6031
:10208C00FFF71AFA4FF6FF72254B1A80C82008F09A
:10209C0047FF236843B902214FF4FC628DE8060028
:1020AC0020485C2124221EE0012B4FF4FC6204D159
:1020BC000223009301921C4812E0022B03D10093DF
:1020CC0001921A480CE0032B04D1022300930192D5
:1020DC00174805E0042B08D10223164800930192FF
:1020EC005C212422002306F079FD01254FF4FC64C9
:1020FC004046FFF7EFFA1C211422002300950194AF
:10210C0006F06CFDFFF700FAFFF70CFB1C210095A5
:10211C0001940A46002306F061FD39B0BDE8F08F4A
:10212C00000000201BB2000826B2000831B20008E3
:10213C003CB2000847B200084FF6FF7110B5104AC8
:10214C00104CD180E18091810F4900231375D37419
:10215C009374D3810B608B604B60CB6040B19380E8
:10216C0053801380A3806380238053811381138257
:10217C00064A00231360064A0B61136010BD00BFB2
:10218C003C4200203442002058420020544200209F
:10219C00E00000202DE9F8430A27204D204E2A6943
:1021AC002B46002A42D06A68002A3FD01D4A31686B
:1021BC00126891423ADDEA682AB11B49CA89013298
:1021CC00CA810022EA60002201215A6099601A61DA
:1021DC001B688B420CD8144CA089E189023880B260
:1021EC00A081FFF745FC3823E3812382BDE8F88307
:1021FC00022B46F005820C4CA07C000240F0FE0045
:10220C00FFF7ACFB0546A089E189023880B2A081BA
:10221C00FFF72EFCE5812582BDE8F88358420020AB
:10222C00E0000020544200203C420020064CE08993
:10223C00FFF77AFBE289E37C511C013389B2E3742A
:10224C00431E8046E18101E03C420020FE2B06F259
:10225C00CC81DFE813F0FF000901130119013301F0
:10226C0051015B016B01730194019E01A401BE013C
:10227C00DC01E601F90112021C0226022C024602C4
:10228C0064026E0281029B02BC02C602CC02E60210
:10229C0004030E0321033A0344035203580372034D
:1022AC0090039A03FE03230442045104570471045F
:1022BC008F049904A904C004CA04D904DF04FC04E3
:1022CC001C05290536054D056E057D058305A505FF
:1022DC00C305CD05CA31DF05E405E905EE05F305B7
:1022EC00F805FF050406CA3109060E061306180682
:1022FC001D06240629062E06CA31330638063D066D
:10230C00420649064E0653065806CA315D06620659
:10231C0067066E06730678067D068206CA31870646
:10232C008C06930698069D06A206A706AC06CA3133
:10233C00B106B806BD06C406CB06D206D906E00621
:10234C00E706ED06F406F906FE06030708070D0777
:10235C001207CA311907430766078907AC07CF076D
:10236C00F207160833085A088108A808D508FC0893
:10237C0023094B096D099309B909DF09050A2B0AD1
:10238C005B0A850A9B0AC50AEF0A190B430B6D0BF6
:10239C00970BCB0BF20BFE0B0A0C160C220C2E0C13
:1023AC003A0C480C510C5B0C650C6F0C790C830CC3
:1023BC008D0C9A0CA10CAB0CB50CBF0CC90CD30C2E
:1023CC00DD0CEA0CF10C1B0D4D0D770DA10DCB0D99
:1023DC00F50D210E380E470E510E600E680E860E4E
:1023EC00900EB70EC30ECA0ED50EF10EB71BD41B32
:1023FC00E71B121C1E1C251C2F1C3E1C521C701C87
:10240C007A1CA71CB31CBA1CCA1CD91CEC1C1B1DA7
:10241C00A22AD32ADF2AE62AF02AFF2A0B2B292B01
:10242C00332B442B502B572B5C2B6B2B722B992B58
:10243C00D530E430EF30F630FF300E3113312F3120
:10244C0038314731523159315D316C317531171D8D
:10245C009131BF310846FFF781FAE38920800233BE
:10246C00E3810A2306F0C6B82088E179431C237463
:10247C006174FFF7C5FA072306F0BCB82388013353
:10248C002380062306F0B6B86378BB4D0133DBB26C
:10249C00802BA27914BF00200420637013F00F0F5F
:1024AC00EB5C02F0010243EA02030CBF1021002195
:1024BC0003430B43A371042306F09CB86378A27901
:1024CC0013F00F0FAC4803F1FF33DBB202F0010243
:1024DC000CBF1021002142F002027F2B6370C35C01
:1024EC0042EA010242EA030214BF002104210A431A
:1024FC00A271042306F07EB80846FFF715FAE389AB
:10250C0060700133E381072306F074B8E279D309D4
:10251C0043EA4203A279DBB2E37122F03B0203F0FF
:10252C0029031343A371042306F064B8934BE28888
:10253C00D988DA80E180042306F05CB8A38825886A
:10254C00A0795A19591C218220F03B00C2F300419A
:10255C000843110A01F028010843A28002F400612B
:10256C0005F40065C3F3C02242EA9523844A43EA8A
:10257C005123D35C1843A0710B2306F03BB8208881
:10258C00FFF7D2F92388E07101332382072306F089
:10259C0031B82388013B2380062306F02BB823781F
:1025AC00754D0133DBB2802BA27914BF00200420BF
:1025BC00237013F00F0FEB5C02F0010243EA0203ED
:1025CC000CBF1021002103430B43A371042306F01D
:1025DC0011B82378A27913F00F0F674803F1FF337A
:1025EC00DBB202F001020CBF1021002142F002020A
:1025FC007F2B2370C35C42EA010242EA030214BF40
:10260C00002104210A43A271042305F0F3BF0846FC
:10261C00FFF78AF9E38920700133E381072305F082
:10262C00E9BFE379A27903F0010122F03B021143E7
:10263C005A0842EAC313DBB2E37103F028030B43DD
:10264C00A371042305F0D6BF0846FFF76DF9E389A3
:10265C0062784C4D0133013A9BB2D2B228704A4990
:10266C00E3816270002A05F0C28742B213449BB228
:10267C00CB810B820D2305F0BDBF0846FFF76EF929
:10268C00E38960800233E3810A2305F0B3BF6088DD
:10269C00E179431C23746174FFF7B2F9072305F049
:1026AC00A9BF638801336380062305F0A3BFE378D9
:1026BC00314D0133DBB2802BA27914BF00200420F2
:1026CC00E37013F00F0FEB5C02F0010243EA02031C
:1026DC000CBF1021002103430B43A371042305F00D
:1026EC0089BFE378A27913F00F0F234803F1FF336E
:1026FC00DBB202F001020CBF1021002142F00202F9
:10270C007F2BE370C35C42EA010242EA030214BF6E
:10271C00002104210A43A271042305F06BBF084673
:10272C00FFF702F9E389E0700133E381072305F039
:10273C0061BFA279E17902F0010343EA4103DBB204
:10274C0022F03B02E37142EAD11203F02803134357
:10275C00A371042305F04EBF0846FFF7E5F8094BBB
:10276C001870E38940B20133184480B2E0812082B2
:10277C000C2305F03FBF00BF5AB3000834420020C1
:10278C006AB400086C4200203C420020A388658893
:10279C00A0795A19591C218220F03B00C2F3004148
:1027AC000843110A01F028010843A28002F40061D9
:1027BC0005F40065C3F3C02242EA9523B04A43EA0C
:1027CC005123D35C1843A0710B2305F013BF608811
:1027DC00FFF7AAF86388E07101332382072305F021
:1027EC0009BF6388013B6380062305F003BFA37810
:1027FC00A44D0133DBB2802BA27914BF002004203E
:10280C00A37013F00F0FEB5C02F0010243EA02031A
:10281C000CBF1021002103430B43A371042305F0CB
:10282C00E9BEA378A27913F00F0F964803F1FF339A
:10283C00DBB202F001020CBF1021002142F00202B7
:10284C007F2BA370C35C42EA010242EA030214BF6D
:10285C00002104210A43A271042305F0CBBE0846D3
:10286C00FFF762F8E389A0700133E381072305F0D9
:10287C00C1BEE179A2794B0843EAC213DBB201F085
:10288C00010122F03B02E3710A4303F028031343D6
:10289C00A371042305F0AEBE0846FFF745F87A4A4B
:1028AC00E3891070A07901339BB240067749E3812C
:1028BC0002D5072305F09EBE92F9002013449BB26B
:1028CC00CB810B820C2305F095BE0846FFF746F82A
:1028DC00E389A0800233E3810A2305F08BBE08460E
:1028EC00FFF73CF8E389A1880233E381431C238280
:1028FC00FFF7BEF8102305F07DBEA3880133A3803B
:10290C00062305F077BE63795E4D0133DBB2802B75
:10291C00A27914BF00200420637113F00F0FEB5C3D
:10292C0002F0010243EA02030CBF10210021034311
:10293C000B43A371042305F05DBE6379A27913F0F8
:10294C000F0F504803F1FF33DBB202F001020CBF52
:10295C001021002142F002027F2B6371C35C42EA1A
:10296C00010242EA030214BF002104210A43A271AE
:10297C00042305F03FBE0846FEF7D6FFE3896071DD
:10298C000133E381072305F035BEA379DA0603F0A2
:10299C00010508D43D4AD27902F00F02092A8CBFF6
:1029AC000622002200E0062215B9E179992901D905
:1029BC0042F06002E179DFF8CCE09A2928BF0125CA
:1029CC0013F0020F21F077001CD08A1A02F0880352
:1029DC00C00840EA5300DFF8C0C000F005031CF843
:1029EC0003C02B4B000912F4807FE2711B5CD2B246
:1029FC001EF802204CEA03030CBF022103211343EF
:102A0C000B4315E00A4402F08803C2F30021E27183
:102A1C00D2B2C0081EF8022040EA530318481143F2
:102A2C0003F00502825C1B090A431A49CB5C134371
:102A3C00A371E079FDF7C2FBA379C0EB801023F002
:102A4C00050380001D4304300543A571042305F0E4
:102A5C00D1BD0846FEF768FF0B4AE3891070A079D8
:102A6C0001339BB245060949E3817FF522AF92F908
:102A7C00002013449BB2CB810B820C2305F0BABD12
:102A8C006AB400085AB300086C4200203C42002093
:102A9C0062B4000852B200085AB40008A28853006D
:102AAC0002F4006101322282A2798DB222F03B0243
:102ABC00E91242EA134041EA95211A0AA38003F471
:102ACC00006341EA5323B24902F02802CB5C024373
:102ADC001A43A2710B2305F08DBD0846FEF73EFF8D
:102AEC00E38905460233E381FEF738FF0135A08008
:102AFC002582102305F07EBDA388013BA38006230D
:102B0C0005F078BD2379A34D0133DBB2802BA2797C
:102B1C0014BF00200420237113F00F0FEB5C02F0A4
:102B2C00010243EA02030CBF1021002103430B43B3
:102B3C00A371042305F05EBD2379A27913F00F0F66
:102B4C00944803F1FF33DBB202F001020CBF1021F9
:102B5C00002142F002027F2B2371C35C42EA010286
:102B6C0042EA030214BF002104210A43A271042388
:102B7C0005F040BD0846FEF7D7FEE389207101330E
:102B8C00E381072305F036BDE379A279DB4322F01C
:102B9C003A02DBB2E37142F0120203F02803134352
:102BAC00A371042305F026BD0846FEF7BDFEE3899C
:102BBC00794A01331070A0799BB2E381C40777493D
:102BCC003FF577AE92F9002013449BB2CB810B8278
:102BDC000C2305F00FBD0846FEF7C0FEE389A0816B
:102BEC000233E3810A2305F005BD0846FEF7B6FE65
:102BFC00E389E1790233E381431C23746174FEF7AA
:102C0C00FFFE0D2305F0F6BCA3890133A381062337
:102C1C0005F0F0BCA088FEF787FEA379013003F025
:102C2C0001025C4BC1B25B5C80290CBF0425002502
:102C3C00134311F00F0F14BF002010202B4303433C
:102C4C00A088A371FEF7DCFE0B2305F0D3BCA08893
:102C5C00FEF76AFEA37910F00F0F00F1FF314D481B
:102C6C00C9B2405C03F0010343F0020314BF00251A
:102C7C00102503437F290CBF042200222B4313434E
:102C8C00A088A371FEF7BCFE0B2305F0B3BC08466D
:102C9C00FEF74AFEE38901460133A088E381FEF783
:102CAC00AFFE0A2305F0A6BCA37923F03B02E3791F
:102CBC0003F02803134343F00103A371042305F02D
:102CCC0099BC0846FEF730FE334AE3891070A079B0
:102CDC0001339BB2C0073149E3817FF5EAAD92F92C
:102CEC00002013449BB2CB810B820C2305F082BCD9
:102CFC00A288A389501C2082A079D118C1F3004569
:102D0C0020F03B00C2F3C02203F40063054342EA07
:102D1C009323080AA1801E4A01F4006143EA51235F
:102D2C00D35C00F0280028431843A0710B2305F056
:102D3C0061BC0846FEF712FEE38905460233E381C7
:102D4C00FEF7F2FD0135E07125820D2305F052BC32
:102D5C00A389013BA381062305F04CBCE3790D4DFF
:102D6C000133DBB2802BA27914BF00200420E37165
:102D7C0013F00F0FEB5C02F0010243EA02030CBFED
:102D8C001021002103430B43A371042305F032BC33
:102D9C006AB400085AB300086C4200203C42002080
:102DAC00E379A27913F00F0FC94803F1FF33DBB2BB
:102DBC0002F001020CBF1021002142F002027F2B15
:102DCC00E371C35C42EA010242EA030214BF002130
:102DDC0004210A43A271042305F00CBC0846FEF73B
:102DEC00A3FDE389E0710133E381072305F002BC05
:102DFC00A37913F0010F03F0C401E37918BF10227B
:102E0C0003F0280308BF01220B431343A3710423CF
:102E1C0005F0F0BB23786370042305F0EBBBE3787B
:102E2C006370042305F0E6BBA3786370042305F0FC
:102E3C00E1BB63796370042305F0DCBB2379637019
:102E4C00042305F0D7BBA088FEF76EFD0723607046
:102E5C0005F0D0BBE3796370042305F0CBBB63783A
:102E6C002370042305F0C6BBE3782370042305F01C
:102E7C00C1BBA3782370042305F0BCBB637923701A
:102E8C00042305F0B7BB23792370042305F0B2BBF0
:102E9C00A088FEF749FD0723207005F0ABBBE37952
:102EAC002370042305F0A6BB6378E370042305F0BC
:102EBC00A1BB2378E370042305F09CBBA378E370DB
:102ECC00042305F097BB6379E370042305F092BBF0
:102EDC002379E370042305F08DBBA088FEF724FD55
:102EEC000723E07005F086BBE379E370042305F05B
:102EFC0081BB6378A370042305F07CBB2378A3709B
:102F0C00042305F077BBE378A370042305F072BBB0
:102F1C006379A370042305F06DBB2379A37004239C
:102F2C0005F068BBA088FEF7FFFC0723A07005F036
:102F3C0061BBE379A370042305F05CBB6378637118
:102F4C00042305F057BB23786371042305F052BBAF
:102F5C00E3786371042305F04DBBA37863710423FC
:102F6C0005F048BB23796371042305F043BBA088AB
:102F7C00FEF7DAFC0723607105F03CBBE379637163
:102F8C00042305F037BB63782371042305F032BBAF
:102F9C0023782371042305F02DBBE37823710423DC
:102FAC0005F028BBA3782371042305F023BB6379B8
:102FBC002371042305F01EBBA088FEF7B5FC072384
:102FCC00207105F017BBE3792371042305F012BBC4
:102FDC00A0886178FEF714FD072305F00BBBA088D1
:102FEC002178FEF70DFD072305F004BBA088E178DE
:102FFC00FEF706FD072305F0FDBAA088A178FEF7C1
:10300C00FFFC072305F0F6BAA0886179FEF7F8FCFF
:10301C00072305F0EFBAA0882179FEF7F1FC07230E
:10302C0005F0E8BA0123EB60E281042305F0E2BA73
:10303C00A088E179FEF7E4FC072305F0DBBA63789E
:10304C00E371042305F0D6BA2378E371042305F069
:10305C00D1BAE378E371042305F0CCBAA378E37119
:10306C00042305F0C7BA6379E371042305F0C2BAEF
:10307C002379E371042305F0BDBAA088FEF754FC54
:10308C000723E07105F0B6BAE2796078111802F006
:10309C00880200F08800D21042EA900201F0880306
:1030AC0042EA53030A4AC1F30020E171C9B2525CEF
:1030BC0040EA0201074803F00702825C1B090A433D
:1030CC000549CB5C1343A371042305F093BA00BFED
:1030DC005AB300086AB4000852B20008E2792078AA
:1030EC00111802F0880200F08800D21042EA900217
:1030FC0001F0880342EA5303BE4AC1F30020E17198
:10310C00C9B2525C40EA0201BB4803F00702825C80
:10311C001B090A43B949CB5C1343A371042305F083
:10312C0069BAE279E078111802F0880200F08800A0
:10313C00D21042EA900201F0880342EA5303AD4AEE
:10314C00C1F30020E171C9B2525C40EA0201AA4805
:10315C0003F00702825C1B090A43A849CB5C1343AA
:10316C00A371042305F046BAE279A078111802F095
:10317C00880200F08800D21042EA900201F0880325
:10318C0042EA53039B4AC1F30020E171C9B2525C7D
:10319C0040EA0201984803F00702825C1B090A43CB
:1031AC009649CB5C1343A371042305F023BAE2794F
:1031BC006079111802F0880200F08800D21042EAFF
:1031CC00900201F0880342EA53038A4AC1F30020BB
:1031DC00E171C9B2525C40EA0201874803F0070270
:1031EC00825C1B090A438549CB5C1343A3710423FE
:1031FC0005F000BAE2792079111802F0880200F08B
:10320C008800D21042EA900201F0880342EA53038C
:10321C00784AC1F30020E171C9B2525C40EA020164
:10322C00754803F00702825C1B090A437349CB5CA7
:10323C001343A371042305F0DDB9A088FEF774FBDA
:10324C00E3791A1803F08803DB1000F0880002F011
:10325C00880143EA9000674B40EA5100E271C2F3E7
:10326C000021D2B29B5C00F007020B4362490009BB
:10327C008A5C1A43614B1B5C1343A371072305F053
:10328C00B9B9E27902F08803500002F04401DA1077
:10329C0042EA93030B435749C2B28A5CE07142EA9B
:1032AC001021554803F00702825C1B090A4353495D
:1032BC00CB5C1343A371042305F09CB9E2796078CD
:1032CC00A179131801F0010102F08802194400F0F1
:1032DC008800D21042EA900201F0880342EA5303BC
:1032EC00444AC1F30020E171C9B2525C40EA0201C8
:1032FC00414803F00702825C1B090A433F49CB5C3F
:10330C001343A371042305F075B9E2792078A179F0
:10331C00131801F0010102F08802194400F0880032
:10332C00D21042EA900201F0880342EA5303314A78
:10333C00C1F30020E171C9B2525C40EA02012E488F
:10334C0003F00702825C1B090A432C49CB5C134334
:10335C00A371042305F04EB9E279E078A179131832
:10336C0001F0010102F08802194400F08800D2102B
:10337C0042EA900201F0880342EA53031D4AC1F36A
:10338C000020E171C9B2525C40EA02011A4803F014
:10339C000702825C1B090A431849CB5C1343A371D7
:1033AC00042305F027B9E279A078A179131801F06C
:1033BC00010102F08802194400F08800D21042EAA0
:1033CC00900201F0880342EA53030A4AC1F3002039
:1033DC00E171C9B2525C40EA0201074803F00702EE
:1033EC00825C1B090A430549CB5C1343A37104237C
:1033FC0005F000B95AB300086AB4000852B20008CC
:10340C00E2796079A179131801F0010102F08802C8
:10341C00194400F08800D21042EA900201F08803AF
:10342C0042EA5303B44AC1F30020E171C9B2525CC1
:10343C0040EA0201B14803F00702825C1B090A430F
:10344C00AF49CB5C1343A371042305F0D3B8E279E5
:10345C002079A179131801F0010102F088021944B6
:10346C0000F08800D21042EA900201F0880342EA90
:10347C005303A14AC1F30020E171C9B2525C40EA86
:10348C0002019E4803F00702825C1B090A439C4917
:10349C00CB5C1343A371042305F0ACB8A088FEF7F2
:1034AC0043FAE379A279191802F0010203F08803B8
:1034BC000A44DB1000F0880002F0880143EA900017
:1034CC008D4B40EA5100E271C2F30021D2B29B5CF9
:1034DC0000F007020B43894900098A5C1A43884BA8
:1034EC001B5C1343A371072305F084B8E179A3791E
:1034FC0001F0880203F0010303EB410301F04400E7
:10350C00D11041EA920202437B48C3F30021E371DC
:10351C00DBB2C35C79480B4302F00701415C120932
:10352C001943774B9B5C0B43A371042305F062B8E2
:10353C00E2796178734D501A02F0880201F088012B
:10354C00D21042EA910200F0880342EA530303F0DE
:10355C0007016D5C6C491B09CB5C67491D43C3B209
:10356C00C95C10F4807F0CBF0222032245EA0103E0
:10357C001343A371E071042305F03CB8E279217880
:10358C00604D501A02F0880201F08801D21042EA14
:10359C00910200F0880342EA530303F007016D5CCB
:1035AC0059491B09CB5C54491D43C3B2C95C10F487
:1035BC00807F0CBF0222032245EA01031343A3714F
:1035CC00E071042305F016B8E279E1784D4D501AFC
:1035DC0002F0880201F08801D21042EA910200F058
:1035EC00880342EA530303F007016D5C46491B094B
:1035FC00CB5C41491D43C3B2C95C10F4807F0CBF46
:10360C000222032245EA01031343A371E071042350
:10361C0004F0F0BFE279A1783A4D501A02F088021A
:10362C0001F08801D21042EA910200F0880342EACC
:10363C00530303F007016D5C33491B09CB5C2E4926
:10364C001D43C3B2C95C10F4807F0CBF022203225D
:10365C0045EA01031343A371E071042304F0CABFCC
:10366C00E2796179274D501A02F0880201F0880145
:10367C00D21042EA910200F0880342EA530303F0AD
:10368C0007016D5C20491B09CB5C1B491D43C3B270
:10369C00C95C10F4807F0CBF0222032245EA0103AF
:1036AC001343A371E071042304F0A4BFE2792179E0
:1036BC00144D501A02F0880201F08801D21042EA2F
:1036CC00910200F0880342EA530303F007016D5C9A
:1036DC000D491B09CB5C08491D43C3B2C95C10F4EE
:1036EC00807F0CBF0222032245EA01031343A3711E
:1036FC00E071042304F07EBF5AB300086AB40008DA
:10370C0052B200085AB4000862B40008A088FEF750
:10371C000BF9E379B24D1A1A03F08803DB1000F0B1
:10372C00880002F0880143EA900040EA510000F062
:10373C000703ED5CAB4B00091B5C12F4807F45EA80
:10374C000300E271D3B2A84A08BF0221D25C18BFB1
:10375C00032140EA02030B43A371072304F04ABF81
:10376C00E3799F4903F08802D31043EA92030022C5
:10377C00E27103F003028A5C9A491B09CB5C134388
:10378C0043F04203A371042304F034BFE27961785F
:10379C00A379501A03F0010302F08802C01A01F059
:1037AC008801D21042EA910200F0880342EA5303E6
:1037BC008B4D03F007016D5C8A491B09CB5C8A4970
:1037CC001D43C3B2C95C10F4807F0CBF02220322DC
:1037DC0045EA01031343A371E071042304F00ABF0B
:1037EC00E2792178A379501A03F0010302F08802E0
:1037FC00C01A01F08801D21042EA910200F088034D
:10380C0042EA5303764D03F007016D5C75491B09C1
:10381C00CB5C75491D43C3B2C95C10F4807F0CBFEF
:10382C000222032245EA01031343A371E07104232E
:10383C0004F0E0BEE279E178A379501A03F00103B9
:10384C0002F08802C01A01F08801D21042EA9102FB
:10385C0000F0880342EA5303614D03F007016D5CED
:10386C0060491B09CB5C60491D43C3B2C95C10F4B1
:10387C00807F0CBF0222032245EA01031343A3718C
:10388C00E071042304F0B6BEE279A178A379501A52
:10389C0003F0010302F08802C01A01F08801D21073
:1038AC0042EA910200F0880342EA53034C4D03F0C4
:1038BC0007016D5C4B491B09CB5C4B491D43C3B2E3
:1038CC00C95C10F4807F0CBF0222032245EA01037D
:1038DC001343A371E071042304F08CBEE279617987
:1038EC00A379501A03F0010302F08802C01A01F008
:1038FC008801D21042EA910200F0880342EA530395
:10390C00374D03F007016D5C36491B09CB5C36491A
:10391C001D43C3B2C95C10F4807F0CBF022203228A
:10392C0045EA01031343A371E071042304F062BE62
:10393C00E2792179A379501A03F0010302F088028D
:10394C00C01A01F08801D21042EA910200F08803FB
:10395C0042EA5303224D03F007016D5C21491B0918
:10396C00CB5C21491D43C3B2C95C10F4807F0CBFF2
:10397C000222032245EA01031343A371E0710423DD
:10398C0004F038BEA088FDF7CFFFE379A279191AAD
:10399C0002F0010203F088038A1ADB1000F08800A1
:1039AC0002F0880143EA900040EA51000C4D00F00F
:1039BC000703ED5C0B4B00091B5C12F4807F45EA9E
:1039CC000300E271D3B2084A08BF0221D25C18BFCF
:1039DC00032140EA02030B43A371072304F00ABE40
:1039EC005AB4000862B400085AB30008A379BC4D5D
:1039FC0043F30001E37901F0880003F08803DA1047
:103A0C0042EA930343EA500303F00700285CB54DE8
:103A1C001B09EB5C11F4807F40EA0300E171CBB22F
:103A2C00B14908BF0222C95C18BF032240EA010356
:103A3C001343A371042304F0DDBD6278E3791340D2
:103A4C00AA4AE371D35C43F01003A371042304F07E
:103A5C00D1BD2278E3791340A44AE371D35C43F0DF
:103A6C001003A371042304F0C5BDE278E37913407D
:103A7C009E4AE371D35C43F01003A371042304F05A
:103A8C00B9BDA278E3791340984AE371D35C43F053
:103A9C001003A371042304F0ADBD6279E3791340E4
:103AAC00924AE371D35C43F01003A371042304F036
:103ABC00A1BD2279E37913408C4AE371D35C43F0C6
:103ACC001003A371042304F095BDA088FDF72CFF0F
:103ADC00E3791840854BE0711B5C43F01003A37134
:103AEC00072304F087BDE379804AD35C43F01003CD
:103AFC00A371042304F07EBD6278E37953407B4AC2
:103B0C00E371D35CA371042304F074BD2278E379D0
:103B1C005340764AE371D35CA371042304F06ABD6D
:103B2C00E278E3795340714AE371D35CA3710423C7
:103B3C0004F060BDA278E37953406C4AE371D35C26
:103B4C00A371042304F056BD6279E3795340674AAC
:103B5C00E371D35CA371042304F04CBD2279E379A7
:103B6C005340624AE371D35CA371042304F042BD59
:103B7C00A088FDF7D9FEE37958405C4BC0B21B5CC2
:103B8C00E071A371072304F035BD0023E3714423D6
:103B9C00A371042304F02EBD6278E3791343534AD6
:103BAC00E371D35CA371042304F024BD2278E37980
:103BBC0013434E4AE371D35CA371042304F01ABD82
:103BCC00E278E3791343494AE371D35CA37104238C
:103BDC0004F010BDA278E3791343444AE371D35C3B
:103BEC00A371042304F006BD6279E37913433F4AC1
:103BFC00E371D35CA371042304F0FCBC2279E37958
:103C0C0013433A4AE371D35CA371042304F0F2BC6E
:103C1C00A088FDF789FEE3791843344BC0B21B5CD6
:103C2C00E071A371072304F0E5BCE3792F4AD35C60
:103C3C00A371042304F0DEBCE2796078111A02F05F
:103C4C00880289B200F08803D21042EA930201F094
:103C5C00880342EA5303CA0504D4002914BF022581
:103C6C00422500E0032500F0280221F07F011C48CA
:103C7C00114303F00702825C1B091143194AD35C00
:103C8C0019432943A171042304F0B4BCE2792078D0
:103C9C00111A02F0880289B200F08803D21042EAAD
:103CAC00930201F0880342EA5303CA0504D40029A5
:103CBC0014BF0225422500E0032500F0280221F064
:103CCC007F010748114303F00702825C1B09114373
:103CDC00044AD35C19432943A171042304F08ABC20
:103CEC005AB4000862B400085AB300085AB200086B
:103CFC00E279E078111A02F0880289B200F08803A8
:103D0C00D21042EA930201F0880342EA5303CA0537
:103D1C0004D4002914BF0225422500E0032500F03D
:103D2C00280221F07F01BE48114303F00702825C98
:103D3C001B091143BB4AD35C19432943A1710423CA
:103D4C0004F058BCE279A078111A02F0880289B20A
:103D5C0000F08803D21042EA930201F0880342EA91
:103D6C005303CA0504D4002914BF0225422500E0E0
:103D7C00032500F0280221F07F01A948114303F02C
:103D8C000702825C1B091143A64AD35C19432943E1
:103D9C00A171042304F02EBCE2796079111A02F0AF
:103DAC00880289B200F08803D21042EA930201F033
:103DBC00880342EA5303CA0504D4002914BF022520
:103DCC00422500E0032500F0280221F07F019448F1
:103DDC00114303F00702825C1B091143914AD35C27
:103DEC0019432943A171042304F004BCE27920791E
:103DFC00111A02F0880289B200F08803D21042EA4C
:103E0C00930201F0880342EA5303CA0504D4002943
:103E1C0014BF0225422500E0032500F0280221F002
:103E2C007F017F48114303F00702825C1B09114399
:103E3C007C4AD35C19432943A171042304F0DABBF7
:103E4C00A088FDF771FDE27900F08803111A02F0E9
:103E5C00880289B2D21042EA9302CD0501F08803A0
:103E6C0042EA530304D4002914BF0222422200E088
:103E7C00032200F0280021F07F01694D014303F07B
:103E8C000700285C1B0901436648C35C19431143B6
:103E9C00A171072304F0AEBBE279614802F08801FE
:103EAC00CB1043EA910303F00301415C02F02802BA
:103EBC0042F042020A435B491B09CB5C1A43A271D4
:103ECC00042304F097BBA3795D0604F19283A089C7
:103EDC00FDF744FDA389E0810233A38120820B23EB
:103EEC0004F088BBA089FDF739FDA389208002333B
:103EFC00A3810A2304F07EBB0846FDF72FFDE2895F
:103F0C00494B0232E281A2791882540658BFD881FB
:103F1C000A2304F06FBB0846FDF720FD0A23E0815D
:103F2C00208204F067BB0846FDF718FDE189A379F0
:103F3C000231804689B258063B4DE1810CD4A889E8
:103F4C00023880B2A881FDF793FDA5F80E80A5F884
:103F5C001080112304F04EBBA5F810800A2304F046
:103F6C0049BBA0892188023880B2A081FDF780FD71
:103F7C000B2304F03FBB0846FDF7D6FCE389013365
:103F8C00E381E3791A1803F08803DB1000F0880052
:103F9C0002F0880143EA9000244B40EA5100E271A0
:103FAC00C2F30021D2B29B5C00F007020B43204904
:103FBC0000098A5C1A431F4B1B5C1343A371072334
:103FCC0004F018BBA089023880B2A081FDF750FD27
:103FDC000023E38123820B2304F00CBBA379590645
:103FEC003FF575AF052304F005BBA089FDF7B6FCC2
:103FFC00A389E0810233A38120820A2304F0FABA58
:10400C000846FDF7ABFCE289074B0232E281A2794C
:10401C001882520648BFD8810A2304F0EBBA00BFBD
:10402C005AB4000862B400083C4200205AB300089D
:10403C006AB4000852B200080846FDF775FCE38923
:10404C0001380133E381E37C0133E374FE2800F291
:10405C000181DFE810F00F011F012F013F014F011B
:10406C005F01730183019201A101B001BF01CE0177
:10407C00DD01F001FF010F021F022F023F024F0270
:10408C005F02730285029502A502B502C502D50234
:10409C00E502F9020903150321032D033903450336
:1040AC00510361036D037C038B039A03A903B803CB
:1040BC00C703DB03EA03F8030604170425043304DF
:1040CC004104530461046D047904850491049D0436
:1040DC00A904BA04C604D804EA04FC040E0520059D
:1040EC00320549055B056D057F059105A505B705ED
:1040FC00C905E005F2050406160628063A064C0624
:10410C005E06750687069906AB06BD06CF06E10668
:10411C00F3060A071C072E0743075507670779079D
:10412C008B07A207B407C607D807EA07FC070E08D7
:10413C002008370849085B086D087F089108A30818
:10414C00B408CA08DD08EE08FF0810092109320975
:10415C00430959096A09700976097C098209880999
:10416C008E0998099E09A409AA09B009B609BC09C7
:10417C00C209CC09D209D809DE09E409EA09F00917
:10418C00F609000A060A0C0A120A180A1E0A240A60
:10419C002A0A340A3A0A400A460A4C0A520A580AAF
:1041AC00610A6B0A710A770A7D0A830A890A8F0AE7
:1041BC00950A9F0AA50AAB0AB10AB70ABD0AC30A37
:1041CC00C90AD30AD90ADF0AE50AEB0AF10AF70A87
:1041DC00FD0A070B0D0B130B190B1F0B250B2B0BD0
:1041EC00310B3C0B420B480B4E0B540B5A0B600B18
:1041FC00660B710B770B7D0B830B890B8F0B950B60
:10420C009B0BA60BAC0BB20BB80BBE0BC40BCA0BA7
:10421C00D00BDB0BE10BE70BED0BF30BF90BFF0BEF
:10422C00050C100C160C1C0C220C280C2E0C340C2F
:10423C003A0C450C4B0C510C570C5D0C630C690C77
:10424C006F0C7A0C800C860C8C0C920C980C9E0CBF
:10425C00A40CAF0C6278C149D30943EA4203DBB228
:10426C00DAB262708A5C03F001031343A37100237A
:10427C0001F0A5BB2278B949D30943EA4203DBB26A
:10428C00DAB222708A5C03F001031343A37100239A
:10429C0001F095BBE278B149D30943EA4203DBB2A2
:1042AC00DAB2E2708A5C03F001031343A3710023BA
:1042BC0001F085BBA278A949D30943EA4203DBB2DA
:1042CC00DAB2A2708A5C03F001031343A3710023DA
:1042DC0001F075BB6279A149D30943EA4203DBB211
:1042EC00DAB262718A5C03F001031343A3710023F9
:1042FC0001F065BB22799949D30943EA4203DBB249
:10430C00DAB222718A5C03F001031343A371002318
:10431C0001F055BBA088FDF707FBC30943EA400039
:10432C00C0B28E4BC1B25B5C00F001001843A071AF
:10433C00A088FDF765FB072301F041BBE2798749B3
:10434C00D30943EA4203DBB2DAB2E2718A5C03F0CE
:10435C0001031343A371002301F031BB63787F4940
:10436C005A0842EAC312D2B262708A5C03F00103AB
:10437C001343A371002301F022BB237877495A0819
:10438C0042EAC312D2B222708A5C03F001031343D7
:10439C00A371002301F013BBE37870495A0842EA79
:1043AC00C312D2B2E2708A5C03F001031343A3710F
:1043BC00002301F004BBA37868495A0842EAC312EF
:1043CC00D2B2A2708A5C03F001031343A3710023E1
:1043DC0001F0F5BA637961495A0842EAC312D2B2C4
:1043EC0062718A5C03F001031343A371002301F093
:1043FC00E6BA237959495A0842EAC312D2B2227159
:10440C008A5C03F001031343A371002301F0D7BAB4
:10441C00A088FDF789FA410841EAC0114F4BC9B297
:10442C005B5C00F001001843A071A088FDF7E8FA6E
:10443C00072301F0C4BAE37948495A0842EAC31287
:10444C00D2B2E2718A5C03F001031343A37100231F
:10445C0001F0B5BAA379627803F0010343EA420391
:10446C003E49DBB26370CB5C43EAD213A3710023E9
:10447C0001F0A5BAA379227803F0010343EA4203C1
:10448C003649DBB22370CB5C43EAD213A371002311
:10449C0001F095BAA379E27803F0010343EA4203F1
:1044AC002E49DBB2E370CB5C43EAD213A371002339
:1044BC0001F085BAA379A27803F0010343EA420321
:1044CC002649DBB2A370CB5C43EAD213A371002361
:1044DC0001F075BAA379627903F0010343EA420350
:1044EC001E49DBB26371CB5C43EAD213A371002388
:1044FC0001F065BAA379227903F0010343EA420380
:10450C001649DBB22371CB5C43EAD213A3710023AF
:10451C0001F055BAA088FDF707FAA1790F4B01F00D
:10452C00010141EA4001C9B25B5C43EAD010A071C1
:10453C00A088FDF765FA072301F041BAA379E27967
:10454C0003F0010343EA42030449DBB2E371CB5CA1
:10455C0043EAD213A371002301F031BA5AB2000816
:10456C006378A1795A0842EAC112C549D2B2627085
:10457C008A5C03F001031343A371002301F01FBAFB
:10458C002378A1795A0842EAC112BD49D2B22270ED
:10459C008A5C03F001031343A371002301F00FBAEB
:1045AC00E378A1795A0842EAC112B549D2B2E27055
:1045BC008A5C03F001031343A371002301F0FFB9DC
:1045CC00A378A1795A0842EAC112AD49D2B2A270BD
:1045DC008A5C03F001031343A371002301F0EFB9CC
:1045EC006379A1795A0842EAC112A549D2B2627123
:1045FC008A5C03F001031343A371002301F0DFB9BC
:10460C002379A1795A0842EAC1129D49D2B222718A
:10461C008A5C03F001031343A371002301F0CFB9AB
:10462C00A088FDF781F9A179954BC90141EA5001A8
:10463C00C9B25B5C00F001001843A071A088FDF7C3
:10464C00DFF9072301F0BBB9E379A1795A0842EAF3
:10465C00C1128B49D2B2E2718A5C03F0010313439D
:10466C00A371002301F0ABB9627885495300DBB22A
:10467C006370CB5C43EAD213A371002301F09FB9A2
:10468C0022787F495300DBB22370CB5C43EAD21310
:10469C00A371002301F093B9E27879495300DBB29E
:1046AC00E370CB5C43EAD213A371002301F087B90A
:1046BC00A27873495300DBB2A370CB5C43EAD213EC
:1046CC00A371002301F07BB962796D495300DBB211
:1046DC006371CB5C43EAD213A371002301F06FB971
:1046EC00227967495300DBB22371CB5C43EAD213C6
:1046FC00A371002301F063B9A088FDF715F9604B95
:10470C004100C9B25B5C43EAD010A071A088FDF7F0
:10471C0077F9072301F053B9E27959495300DBB219
:10472C00E371CB5C43EAD213A371002301F047B9C8
:10473C006378534923F07F0242EA530262708A5C29
:10474C0003F001031343A371002301F038B923785C
:10475C004B4923F07F0242EA530222708A5C03F039
:10476C0001031343A371002301F029B9E3784449F1
:10477C0023F07F0242EA5302E2708A5C03F00103E9
:10478C001343A371002301F01AB9A3783C4923F019
:10479C007F0242EA5302A2708A5C03F001031343C6
:1047AC00A371002301F00BB96379354923F07F0223
:1047BC0042EA530262718A5C03F001031343A37152
:1047CC00002301F0FCB823792D4923F07F0242EA43
:1047DC00530222718A5C03F001031343A37100237B
:1047EC0001F0EDB8A088FDF79FF820F07F0141EAB9
:1047FC005001234BC9B25B5C00F001001843A0715F
:10480C00A088FDF7FDF8072301F0D9B8E3791C491E
:10481C0023F07F0242EA5302E2718A5C03F0010347
:10482C001343A371002301F0CAB8627814495300F2
:10483C0043F00103DBB26370CB5C43EAD213A37188
:10484C00002301F0BCB822780D49530043F001035A
:10485C00DBB22370CB5C43EAD213A371002301F0CB
:10486C00AEB8E2780649530043F00103DBB2E370C3
:10487C00CB5C43EAD213A371002301F0A0B800BFB4
:10488C005AB20008A278C549530043F00103DBB2C9
:10489C00A370CB5C43EAD213A371002301F08FB851
:1048AC006279BE49530043F00103DBB26371CB5C08
:1048BC0043EAD213A371002301F081B82279B749DE
:1048CC00530043F00103DBB22371CB5C43EAD213F8
:1048DC00A371002301F073B8A088FDF725F84100FF
:1048EC0041F00101AD4BC9B25B5C43EAD010A07141
:1048FC00A088FDF785F8072301F061B8E279A74994
:10490C00530043F00103DBB2E371CB5C43EAD213F7
:10491C00A371002301F053B86378A0495A08627060
:10492C008A5C03F001031343A371002301F047B821
:10493C0023789A495A0822708A5C03F001031343C6
:10494C00A371002301F03BB8E37894495A08E27054
:10495C008A5C03F001031343A371002301F02FB809
:10496C00A3788E495A08A2708A5C03F001031343A2
:10497C00A371002301F023B8637988495A08627146
:10498C008A5C03F001031343A371002301F017B8F1
:10499C00237982495A0822718A5C03F0010313437C
:1049AC00A371002301F00BB8A088FCF7BDFF7B4B73
:1049BC00C0F347015B5C00F001001843A071A088B4
:1049CC00FDF71EF8072300F0FABFE37973495A0884
:1049DC00E2718A5C03F001031343A371002300F01E
:1049EC00EEBF6178A37901F0280203F001031343B1
:1049FC006A4A01F00101525C43F010031343A371A6
:104A0C00002300F0DCBF2178A37901F0280203F029
:104A1C0001031343614A01F00101525C43F010039E
:104A2C001343A371002300F0CABFE178A37901F00E
:104A3C00280203F001031343584A01F00101525CB0
:104A4C0043F010031343A371002300F0B8BFA17807
:104A5C00A37901F0280203F0010313434F4A01F03C
:104A6C000101525C43F010031343A371002300F0C7
:104A7C00A6BF6179A37901F0280203F00103134367
:104A8C00464A01F00101525C43F010031343A37139
:104A9C00002300F094BF2179A37901F0280203F0E0
:104AAC00010313433D4A01F00101525C43F0100332
:104ABC001343A371002300F082BFA088FCF734FFDE
:104ACC00A37900F0010003F00102637C03F02803DA
:104ADC001343324A43F01003125C22F028021343B2
:104AEC00A371042300F06BBFE179A37901F02802D4
:104AFC0003F001031343294A01F00101525C43F016
:104B0C0010031343A371002300F059BF6178A379FC
:104B1C0001F0280203F001031343204A01F00201C3
:104B2C00525C43F010031343A371002300F047BF02
:104B3C002178A37901F0280203F001031343174AEB
:104B4C0001F00201525C43F010031343A3710023E4
:104B5C0000F035BFE178A37901F0280203F00103DE
:104B6C0013430E4A01F00201525C43F0100313434D
:104B7C00A371002300F023BFA178A37901F02802D0
:104B8C0003F001031343054A01F00201525C43F0A8
:104B9C0010031343A371002300F011BF5AB2000895
:104BAC006179A37901F0280203F001031343CA4A87
:104BBC0001F00201525C43F010031343A371002374
:104BCC0000F0FDBE2179A37901F0280203F0010366
:104BDC001343C14A01F00201525C43F0100313432A
:104BEC00A371002300F0EBBEA088FCF79DFEA37917
:104BFC0000F0020003F00102637C03F0280313436E
:104C0C00B54A43F01003125C22F028021343A3713F
:104C1C00042300F0D4BEE179A37901F0280203F05B
:104C2C0001031343AC4A01F00201525C43F0100340
:104C3C001343A371002300F0C2BE6178A37901F085
:104C4C00280203F001031343A34A01F00401525C50
:104C5C0043F010031343A371002300F0B0BE21787E
:104C6C00A37901F0280203F0010313439A4A01F0DF
:104C7C000401525C43F010031343A371002300F0B2
:104C8C009EBEE178A37901F0280203F001031343DF
:104C9C00914A01F00401525C43F010031343A371D9
:104CAC00002300F08CBEA178A37901F0280203F058
:104CBC0001031343884A01F00401525C43F01003D2
:104CCC001343A371002300F07ABE6179A37901F03C
:104CDC00280203F0010313437F4A01F00401525CE4
:104CEC0043F010031343A371002300F068BE217935
:104CFC00A37901F0280203F001031343764A01F073
:104D0C000401525C43F010031343A371002300F021
:104D1C0056BEA088FCF708FEA37900F0040003F04F
:104D2C000102637C03F0280313436B4A43F0100326
:104D3C00125C22F028021343A371042300F03FBE3F
:104D4C00E179A37901F0280203F001031343624ACD
:104D5C0001F00401525C43F010031343A3710023D0
:104D6C0000F02DBE6178A37901F0280203F0010355
:104D7C001343594A01F00801525C43F010031343EA
:104D8C00A371002300F01BBE2178A37901F0280247
:104D9C0003F001031343504A01F00801525C43F045
:104DAC0010031343A371002300F009BEE178A3792B
:104DBC0001F0280203F001031343474A01F00801F4
:104DCC00525C43F010031343A371002300F0F7BDB2
:104DDC00A178A37901F0280203F0010313433E4AA2
:104DEC0001F00801525C43F010031343A37100233C
:104DFC0000F0E5BD6179A37901F0280203F001030D
:104E0C001343354A01F00801525C43F0100313437D
:104E1C00A371002300F0D3BD2179A37901F02802FE
:104E2C0003F0010313432C4A01F00801525C43F0D8
:104E3C0010031343A371002300F0C1BDA088FCF73D
:104E4C0073FDA37900F0080003F00102637C03F00A
:104E5C0028031343204A43F01003125C22F028026B
:104E6C001343A371042300F0AABDE179A37901F0E7
:104E7C00280203F001031343174A01F00801525CA6
:104E8C0043F010031343A371002300F098BD617825
:104E9C00A37901F0280203F0010313430E4A01F039
:104EAC001001525C43F010031343A371002300F074
:104EBC0086BD2178A37901F0280203F00103134386
:104ECC00054A01F01001525C43F010031343A37127
:104EDC00002300F074BD00BF5AB20008E178A3793A
:104EEC0001F0280203F001031343C84A01F010013A
:104EFC00525C43F010031343A371002300F05FBD19
:104F0C00A178A37901F0280203F001031343BF4AEF
:104F1C0001F01001525C43F010031343A371002302
:104F2C0000F04DBD6179A37901F0280203F0010373
:104F3C001343B64A01F01001525C43F010031343C3
:104F4C00A371002300F03BBD2179A37901F0280265
:104F5C0003F001031343AD4A01F01001525C43F01E
:104F6C0010031343A371002300F029BDA088FCF7A4
:104F7C00DBFCA37900F0100003F00102637C03F06A
:104F8C0028031343A14A43F01003125C22F02802B9
:104F9C001343A371042300F012BDE179A37901F04E
:104FAC00280203F001031343984A01F01001525CEC
:104FBC0043F010031343A371002300F000BD61788C
:104FCC00A37901F0280203F0010313438F4A01F087
:104FDC002001525C43F010031343A371002300F033
:104FEC00EEBC2178A37901F0280203F001031343EE
:104FFC00864A01F02001525C43F010031343A37165
:10500C00002300F0DCBCE178A37901F0280203F066
:10501C00010313437D4A01F02001525C43F010035D
:10502C001343A371002300F0CABCA178A37901F04B
:10503C00280203F001031343744A01F02001525C6F
:10504C0043F010031343A371002300F0B8BC617943
:10505C00A37901F0280203F0010313436B4A01F01A
:10506C002001525C43F010031343A371002300F0A2
:10507C00A6BC2179A37901F0280203F001031343A4
:10508C00624A01F02001525C43F010031343A371F8
:10509C00002300F094BCA088FCF746FCA37900F038
:1050AC00200003F00102637C03F028031343574AEA
:1050BC0043F01003125C22F028021343A371042363
:1050CC0000F07DBCE179A37901F0280203F0010323
:1050DC0013434E4A01F02001525C43F0100313437A
:1050EC00A371002300F06BBC6178A37901F0280256
:1050FC0003F001031343454A01F04001525C43F0B5
:10510C0010031343A371002300F059BC2178A37939
:10511C0001F0280203F0010313433C4A01F0400163
:10512C00525C43F010031343A371002300F047BCFF
:10513C00E178A37901F0280203F001031343334A09
:10514C0001F04001525C43F010031343A3710023A0
:10515C0000F035BCA178A37901F0280203F001031B
:10516C0013432A4A01F04001525C43F010031343ED
:10517C00A371002300F023BC6179A37901F028020C
:10518C0003F001031343214A01F04001525C43F048
:10519C0010031343A371002300F011BC2179A379F0
:1051AC0001F0280203F001031343184A01F04001F7
:1051BC00525C43F010031343A3710023FFE3A08858
:1051CC00FCF7B2FBA37900F0400003F00102637C12
:1051DC0003F0280313430D4A43F01003125C22F032
:1051EC0028021343A3710423E9E3E179A37901F0C5
:1051FC00280203F001031343044A01F04001525CFE
:10520C0043F010031343A3710023D8E35AB20008F0
:10521C006178A37901F0280203F001031343BD4A1E
:10522C0021F07F01525C43F010031343A371002360
:10523C00C5E32178A37901F0280203F0010313439D
:10524C00B44A21F07F01525C43F010031343A37165
:10525C000023B4E3E178A37901F0280203F0010301
:10526C001343AC4A21F07F01525C43F0100313430B
:10527C00A3710023A3E3A178A37901F0280203F022
:10528C0001031343A34A21F07F01525C43F0100346
:10529C001343A371002392E36179A37901F02802EF
:1052AC0003F0010313439B4A21F07F01525C43F04E
:1052BC0010031343A371002381E32179A37901F037
:1052CC00280203F001031343924A21F07F01525C40
:1052DC0043F010031343A371002370E3A088FCF781
:1052EC0023FBA37900F0800003F00102637C03F040
:1052FC0028031343874A43F01003825C22F02802F0
:10530C001343A37104235AE3E179A37901F0280232
:10531C0003F0010313437F4A21F07F01525C43F0F9
:10532C0010031343A371002349E3637823F00103B3
:10533C006370002343E3237823F0010323700023DD
:10534C003DE3E37823F00103E370002337E3A37814
:10535C0023F00103A370002331E3637923F00103ED
:10536C00637100232BE3237923F0010323710023C2
:10537C0025E3A088FCF7D8FA00F0FE01A088FCF722
:10538C003FFB07231BE3E37923F00103E3710023C5
:10539C0015E3637823F00203637000230FE3237893
:1053AC0023F002032370002309E3E37823F00203C4
:1053BC00E370002303E3A37823F00203A37000231C
:1053CC00FDE2637923F0020363710023F7E2237992
:1053DC0023F0020323710023F1E2A088FCF7A4FA66
:1053EC0000F0FD01A088FCF70BFB0723E7E2E37953
:1053FC0023F00203E3710023E1E2637823F004035A
:10540C0063700023DBE2237823F004032370002372
:10541C00D5E2E37823F00403E3700023CFE2A37812
:10542C0023F00403A3700023C9E2637923F004037F
:10543C0063710023C3E2237923F004032371002357
:10544C00BDE2A088FCF770FA00F0FB01A088FCF725
:10545C00D7FA0723B3E2E37923F00403E3710023C3
:10546C00ADE2637823F0080363700023A7E223788E
:10547C0023F0080323700023A1E2E37823F0080350
:10548C00E37000239BE2A37823F00803A3700023AE
:10549C0095E2637923F00803637100238FE223798B
:1054AC0023F008032371002389E2A088FCF73CFA5F
:1054BC0000F0F701A088FCF7A3FA07237FE2E37959
:1054CC0023F00803E371002379E2637823F01003DF
:1054DC006370002373E2237823F0100323700023FE
:1054EC006DE2E37823F01003E370002367E2A37806
:1054FC0023F01003A370002361E2637923F01003FF
:10550C00637100235BE2237923F0100323710023E2
:10551C0055E200BF5AB20008A088FCF705FA00F06B
:10552C00EF01A088FCF76CFA072348E2E37923F03B
:10553C001003E371002342E2637823F020036370CD
:10554C0000233CE2237823F020032370002336E26F
:10555C00E37823F02003E370002330E2A37823F0F8
:10556C002003A37000232AE2637923F020036371E4
:10557C00002324E2237923F02003237100231EE26D
:10558C00A088FCF7D1F900F0DF01A088FCF738FA0D
:10559C00072314E2E37923F02003E37100230EE2E6
:1055AC00637823F040036370002308E2237823F030
:1055BC0040032370002302E2E37823F04003E370FE
:1055CC000023FCE1A37823F04003A3700023F6E151
:1055DC00637923F0400363710023F0E1237923F016
:1055EC00400323710023EAE1A088FCF79DF900F049
:1055FC00BF01A088FCF704FA0723E0E1E37923F06C
:10560C004003E3710023DAE1637803F07F036370F6
:10561C000023D4E1237803F07F0323700023CEE131
:10562C00E37803F07F03E3700023C8E1A37803F071
:10563C007F03A3700023C2E1637903F07F036371DE
:10564C000023BCE1237903F07F0323710023B6E12F
:10565C00A088FCF769F900F07F01A088FCF7D0F96D
:10566C000723ACE1E37903F07F03E3710023A6E1A8
:10567C00637843F0010363700023A0E1237843F0C7
:10568C000103237000239AE1E37843F00103E370F4
:10569C00002394E1A37843F00103A37000238EE16F
:1056AC00637943F001036371002388E1237943F0AC
:1056BC0001032371002382E1A088FCF735F940F047
:1056CC000101C9B2A088FCF79BF9072377E1E379C4
:1056DC0043F00103E371002371E1637843F00203AB
:1056EC00637000236BE1237843F0020323700023E3
:1056FC0065E1E37843F00203E37000235FE1A378F4
:10570C0043F00203A370002359E1637943F00203D1
:10571C006371002353E1237943F0020323710023C7
:10572C004DE1A088FCF700F940F00201C9B2A08855
:10573C00FCF766F9072342E1E37943F00203E371D6
:10574C0000233CE1637843F004036370002336E1EB
:10575C00237843F004032370002330E1E37843F013
:10576C000403E37000232AE1A37843F00403A3703D
:10577C00002324E1637943F00403637100231EE1E9
:10578C00237943F004032371002318E1A088FCF76C
:10579C00CBF840F00401C9B2A088FCF731F907231B
:1057AC000DE1E37943F00403E371002307E163782F
:1057BC0043F008036370002301E1237843F00803EE
:1057CC0023700023FBE0E37843F00803E37000232D
:1057DC00F5E0A37843F00803A3700023EFE06379AE
:1057EC0043F0080363710023E9E0237943F00803D5
:1057FC0023710023E3E0A088FCF796F840F0080141
:10580C00C9B2A088FCF7FCF80723D8E0E37943F091
:10581C000803E3710023D2E0637843F01003637054
:10582C000023CCE0237843F0100323700023C6E060
:10583C00E37843F01003E3700023C0E0A37843F057
:10584C001003A3700023BAE0637943F01003637173
:10585C000023B4E0237943F0100323710023AEE05E
:10586C00A088FCF761F840F01001C9B2A088FCF7E1
:10587C00C7F80723A3E0E37943F01003E371002397
:10588C009DE0637843F020036370002397E0237856
:10589C0043F020032370002391E0E37843F02003CE
:1058AC00E37000238BE0A37843F02003A370002364
:1058BC0085E0637943F02003637100237FE0237953
:1058CC0043F020032371002379E0A088FCF72CF827
:1058DC0040F02001C9B2A088FCF792F807236EE0D3
:1058EC00E37943F02003E371002368E0637843F02D
:1058FC0040036370002362E0237843F0400323707D
:10590C0000235CE0E37843F04003E370002356E0AF
:10591C00A37843F04003A370002350E0637943F075
:10592C004003637100234AE0237943F04003237161
:10593C00002344E0A088FBF7F7FF40F04001C9B218
:10594C00A088FCF75DF8072339E0E37943F04003C6
:10595C00E371002333E0637863F07F03637000230B
:10596C002DE0237863F07F032370002327E0E37896
:10597C0063F07F03E370002321E0A37863F07F03DF
:10598C00A37000231BE0637963F07F036371002332
:10599C0015E0237963F07F03237100230FE0A088C7
:1059AC00FBF7C2FF60F07F01C9B2A088FCF728F8B2
:1059BC00072304E0E37963F07F03E37100230833EA
:1059CC0002F018BE0846FBF7C9FFE189A379023142
:1059DC0089B25B068046A44DE1810CD5A8890238BA
:1059EC0080B2A881FCF744F8A5F80E80A5F81080C9
:1059FC00112302F0FFBD28820A2302F0FBBD0846EA
:105A0C00FBF7ACFF0546E189A0890231023889B267
:105A1C0080B2E181A081FCF72BF8E581258211236E
:105A2C0002F0E8BD0846FBF77FFFE389A27901335A
:105A3C00E381E37902F00102191803F088030A44A8
:105A4C00DB1000F0880002F0880143EA9000874BDD
:105A5C0040EA5100E271C2F30021D2B29B5C00F02B
:105A6C0007020B43824900098A5C1A43814B1B5C79
:105A7C001343A371072302F0BDBDA089023880B285
:105A8C00A081FBF7F5FF0823E38123820B2302F0AF
:105A9C00B1BDA379DD077EF51AAA052302F0AABDD4
:105AAC00A089FBF75BFFA38960800233A3810A23E3
:105ABC0002F0A0BD0846FBF751FFE2896A4B0232A7
:105ACC00E281A2791882D40758BFD8810A2302F048
